{
  "contractName": "Ballot",
  "abi": [
    {
      "anonymous": false,
      "inputs": [
        {
          "indexed": true,
          "internalType": "address",
          "name": "owner",
          "type": "address"
        },
        {
          "indexed": true,
          "internalType": "address",
          "name": "spender",
          "type": "address"
        },
        {
          "indexed": false,
          "internalType": "uint256",
          "name": "value",
          "type": "uint256"
        }
      ],
      "name": "Approval",
      "type": "event"
    },
    {
      "anonymous": false,
      "inputs": [
        {
          "indexed": true,
          "internalType": "address",
          "name": "from",
          "type": "address"
        },
        {
          "indexed": true,
          "internalType": "address",
          "name": "to",
          "type": "address"
        },
        {
          "indexed": false,
          "internalType": "uint256",
          "name": "value",
          "type": "uint256"
        }
      ],
      "name": "Transfer",
      "type": "event"
    },
    {
      "inputs": [
        {
          "internalType": "address",
          "name": "owner",
          "type": "address"
        },
        {
          "internalType": "address",
          "name": "spender",
          "type": "address"
        }
      ],
      "name": "allowance",
      "outputs": [
        {
          "internalType": "uint256",
          "name": "",
          "type": "uint256"
        }
      ],
      "stateMutability": "view",
      "type": "function"
    },
    {
      "inputs": [
        {
          "internalType": "address",
          "name": "spender",
          "type": "address"
        },
        {
          "internalType": "uint256",
          "name": "amount",
          "type": "uint256"
        }
      ],
      "name": "approve",
      "outputs": [
        {
          "internalType": "bool",
          "name": "",
          "type": "bool"
        }
      ],
      "stateMutability": "nonpayable",
      "type": "function"
    },
    {
      "inputs": [
        {
          "internalType": "address",
          "name": "account",
          "type": "address"
        }
      ],
      "name": "balanceOf",
      "outputs": [
        {
          "internalType": "uint256",
          "name": "",
          "type": "uint256"
        }
      ],
      "stateMutability": "view",
      "type": "function"
    },
    {
      "inputs": [],
      "name": "decimals",
      "outputs": [
        {
          "internalType": "uint8",
          "name": "",
          "type": "uint8"
        }
      ],
      "stateMutability": "view",
      "type": "function"
    },
    {
      "inputs": [
        {
          "internalType": "address",
          "name": "spender",
          "type": "address"
        },
        {
          "internalType": "uint256",
          "name": "subtractedValue",
          "type": "uint256"
        }
      ],
      "name": "decreaseAllowance",
      "outputs": [
        {
          "internalType": "bool",
          "name": "",
          "type": "bool"
        }
      ],
      "stateMutability": "nonpayable",
      "type": "function"
    },
    {
      "inputs": [
        {
          "internalType": "address",
          "name": "spender",
          "type": "address"
        },
        {
          "internalType": "uint256",
          "name": "addedValue",
          "type": "uint256"
        }
      ],
      "name": "increaseAllowance",
      "outputs": [
        {
          "internalType": "bool",
          "name": "",
          "type": "bool"
        }
      ],
      "stateMutability": "nonpayable",
      "type": "function"
    },
    {
      "inputs": [],
      "name": "name",
      "outputs": [
        {
          "internalType": "string",
          "name": "",
          "type": "string"
        }
      ],
      "stateMutability": "view",
      "type": "function"
    },
    {
      "inputs": [],
      "name": "owner",
      "outputs": [
        {
          "internalType": "address",
          "name": "",
          "type": "address"
        }
      ],
      "stateMutability": "view",
      "type": "function"
    },
    {
      "inputs": [],
      "name": "symbol",
      "outputs": [
        {
          "internalType": "string",
          "name": "",
          "type": "string"
        }
      ],
      "stateMutability": "view",
      "type": "function"
    },
    {
      "inputs": [],
      "name": "totalSupply",
      "outputs": [
        {
          "internalType": "uint256",
          "name": "",
          "type": "uint256"
        }
      ],
      "stateMutability": "view",
      "type": "function"
    },
    {
      "inputs": [
        {
          "internalType": "address",
          "name": "recipient",
          "type": "address"
        },
        {
          "internalType": "uint256",
          "name": "amount",
          "type": "uint256"
        }
      ],
      "name": "transfer",
      "outputs": [
        {
          "internalType": "bool",
          "name": "",
          "type": "bool"
        }
      ],
      "stateMutability": "nonpayable",
      "type": "function"
    },
    {
      "inputs": [
        {
          "internalType": "address",
          "name": "sender",
          "type": "address"
        },
        {
          "internalType": "address",
          "name": "recipient",
          "type": "address"
        },
        {
          "internalType": "uint256",
          "name": "amount",
          "type": "uint256"
        }
      ],
      "name": "transferFrom",
      "outputs": [
        {
          "internalType": "bool",
          "name": "",
          "type": "bool"
        }
      ],
      "stateMutability": "nonpayable",
      "type": "function"
    },
    {
      "inputs": [
        {
          "internalType": "address",
          "name": "",
          "type": "address"
        },
        {
          "internalType": "uint256",
          "name": "",
          "type": "uint256"
        },
        {
          "internalType": "address",
          "name": "",
          "type": "address"
        }
      ],
      "name": "userInfo",
      "outputs": [
        {
          "internalType": "uint256",
          "name": "donateAmount",
          "type": "uint256"
        },
        {
          "internalType": "uint256",
          "name": "hasVoted",
          "type": "uint256"
        }
      ],
      "stateMutability": "view",
      "type": "function"
    },
    {
      "inputs": [
        {
          "internalType": "address",
          "name": "_to",
          "type": "address"
        }
      ],
      "name": "setOwner",
      "outputs": [],
      "stateMutability": "nonpayable",
      "type": "function"
    },
    {
      "inputs": [
        {
          "internalType": "address",
          "name": "_group",
          "type": "address"
        },
        {
          "internalType": "uint256",
          "name": "_pid",
          "type": "uint256"
        },
        {
          "internalType": "address",
          "name": "_to",
          "type": "address"
        },
        {
          "internalType": "uint256",
          "name": "_amount",
          "type": "uint256"
        }
      ],
      "name": "mint",
      "outputs": [],
      "stateMutability": "nonpayable",
      "type": "function"
    },
    {
      "inputs": [
        {
          "internalType": "address",
          "name": "_group",
          "type": "address"
        },
        {
          "internalType": "uint256",
          "name": "_pid",
          "type": "uint256"
        }
      ],
      "name": "getUserCurrentBallot",
      "outputs": [
        {
          "internalType": "uint256",
          "name": "",
          "type": "uint256"
        }
      ],
      "stateMutability": "view",
      "type": "function"
    },
    {
      "inputs": [
        {
          "internalType": "address",
          "name": "_group",
          "type": "address"
        },
        {
          "internalType": "uint256",
          "name": "_pid",
          "type": "uint256"
        },
        {
          "internalType": "uint256",
          "name": "_amount",
          "type": "uint256"
        }
      ],
      "name": "voteToProject",
      "outputs": [
        {
          "internalType": "uint256",
          "name": "",
          "type": "uint256"
        }
      ],
      "stateMutability": "nonpayable",
      "type": "function"
    }
  ],
  "bytecode": "0x60806040523480156200001157600080fd5b506040518060400160405280600681526020017f42616c6c6f7400000000000000000000000000000000000000000000000000008152506040518060400160405280600681526020017f42414c4c4f540000000000000000000000000000000000000000000000000000815250816003908051906020019062000096929190620000b8565b508060049080519060200190620000af929190620000b8565b505050620001cd565b828054620000c69062000168565b90600052602060002090601f016020900481019282620000ea576000855562000136565b82601f106200010557805160ff191683800117855562000136565b8280016001018555821562000136579182015b828111156200013557825182559160200191906001019062000118565b5b50905062000145919062000149565b5090565b5b80821115620001645760008160009055506001016200014a565b5090565b600060028204905060018216806200018157607f821691505b602082108114156200019857620001976200019e565b5b50919050565b7f4e487b7100000000000000000000000000000000000000000000000000000000600052602260045260246000fd5b611c6d80620001dd6000396000f3fe608060405234801561001057600080fd5b506004361061010b5760003560e01c80636ec0a029116100a257806395d89b411161007157806395d89b41146102e1578063a457c2d7146102ff578063a9059cbb1461032f578063dd62ed3e1461035f578063ef8c7a811461038f5761010b565b80636ec0a0291461023257806370a08231146102635780638da5cb5b14610293578063954b2280146102b15761010b565b806323b872dd116100de57806323b872dd14610198578063313ce567146101c857806339509351146101e65780633c173a4f146102165761010b565b806306fdde0314610110578063095ea7b31461012e57806313af40351461015e57806318160ddd1461017a575b600080fd5b6101186103bf565b604051610125919061162c565b60405180910390f35b61014860048036038101906101439190611309565b610451565b6040516101559190611611565b60405180910390f35b61017860048036038101906101739190611255565b61046f565b005b61018261050d565b60405161018f919061176e565b60405180910390f35b6101b260048036038101906101ad91906112ba565b610517565b6040516101bf9190611611565b60405180910390f35b6101d061060f565b6040516101dd91906117b2565b60405180910390f35b61020060048036038101906101fb9190611309565b610614565b60405161020d9190611611565b60405180910390f35b610230600480360381019061022b9190611394565b6106c0565b005b61024c60048036038101906102479190611345565b6107db565b60405161025a929190611789565b60405180910390f35b61027d60048036038101906102789190611255565b610819565b60405161028a919061176e565b60405180910390f35b61029b610861565b6040516102a891906115f6565b60405180910390f35b6102cb60048036038101906102c691906113f7565b610887565b6040516102d8919061176e565b60405180910390f35b6102e9610995565b6040516102f6919061162c565b60405180910390f35b61031960048036038101906103149190611309565b610a27565b6040516103269190611611565b60405180910390f35b61034960048036038101906103449190611309565b610b12565b6040516103569190611611565b60405180910390f35b6103796004803603810190610374919061127e565b610b30565b604051610386919061176e565b60405180910390f35b6103a960048036038101906103a49190611309565b610bb7565b6040516103b6919061176e565b60405180910390f35b6060600380546103ce906118c7565b80601f01602080910402602001604051908101604052809291908181526020018280546103fa906118c7565b80156104475780601f1061041c57610100808354040283529160200191610447565b820191906000526020600020905b81548152906001019060200180831161042a57829003601f168201915b5050505050905090565b600061046561045e610c57565b8484610c5f565b6001905092915050565b600560009054906101000a900473ffffffffffffffffffffffffffffffffffffffff1673ffffffffffffffffffffffffffffffffffffffff163373ffffffffffffffffffffffffffffffffffffffff16146104c957600080fd5b80600560006101000a81548173ffffffffffffffffffffffffffffffffffffffff021916908373ffffffffffffffffffffffffffffffffffffffff16021790555050565b6000600254905090565b6000610524848484610e2a565b6000600160008673ffffffffffffffffffffffffffffffffffffffff1673ffffffffffffffffffffffffffffffffffffffff168152602001908152602001600020600061056f610c57565b73ffffffffffffffffffffffffffffffffffffffff1673ffffffffffffffffffffffffffffffffffffffff168152602001908152602001600020549050828110156105ef576040517f08c379a00000000000000000000000000000000000000000000000000000000081526004016105e6906116ce565b60405180910390fd5b610603856105fb610c57565b858403610c5f565b60019150509392505050565b600090565b60006106b6610621610c57565b84846001600061062f610c57565b73ffffffffffffffffffffffffffffffffffffffff1673ffffffffffffffffffffffffffffffffffffffff16815260200190815260200160002060008873ffffffffffffffffffffffffffffffffffffffff1673ffffffffffffffffffffffffffffffffffffffff168152602001908152602001600020546106b191906117e9565b610c5f565b6001905092915050565b600560009054906101000a900473ffffffffffffffffffffffffffffffffffffffff1673ffffffffffffffffffffffffffffffffffffffff163373ffffffffffffffffffffffffffffffffffffffff161461071a57600080fd5b6000600660008673ffffffffffffffffffffffffffffffffffffffff1673ffffffffffffffffffffffffffffffffffffffff168152602001908152602001600020600085815260200190815260200160002060008473ffffffffffffffffffffffffffffffffffffffff1673ffffffffffffffffffffffffffffffffffffffff16815260200190815260200160002090506107c28282600001546110ab90919063ffffffff16565b81600001819055506107d483836110c1565b5050505050565b600660205282600052604060002060205281600052604060002060205280600052604060002060009250925050508060000154908060010154905082565b60008060008373ffffffffffffffffffffffffffffffffffffffff1673ffffffffffffffffffffffffffffffffffffffff168152602001908152602001600020549050919050565b600560009054906101000a900473ffffffffffffffffffffffffffffffffffffffff1681565b600080600660008673ffffffffffffffffffffffffffffffffffffffff1673ffffffffffffffffffffffffffffffffffffffff168152602001908152602001600020600085815260200190815260200160002060003373ffffffffffffffffffffffffffffffffffffffff1673ffffffffffffffffffffffffffffffffffffffff1681526020019081526020016000209050600081600101549050600061093785836110ab90919063ffffffff16565b90508083600001541061097f576040517f08c379a0000000000000000000000000000000000000000000000000000000008152600401610976906116ae565b60405180910390fd5b8083600101819055508493505050509392505050565b6060600480546109a4906118c7565b80601f01602080910402602001604051908101604052809291908181526020018280546109d0906118c7565b8015610a1d5780601f106109f257610100808354040283529160200191610a1d565b820191906000526020600020905b815481529060010190602001808311610a0057829003601f168201915b5050505050905090565b60008060016000610a36610c57565b73ffffffffffffffffffffffffffffffffffffffff1673ffffffffffffffffffffffffffffffffffffffff16815260200190815260200160002060008573ffffffffffffffffffffffffffffffffffffffff1673ffffffffffffffffffffffffffffffffffffffff16815260200190815260200160002054905082811015610af3576040517f08c379a0000000000000000000000000000000000000000000000000000000008152600401610aea9061172e565b60405180910390fd5b610b07610afe610c57565b85858403610c5f565b600191505092915050565b6000610b26610b1f610c57565b8484610e2a565b6001905092915050565b6000600160008473ffffffffffffffffffffffffffffffffffffffff1673ffffffffffffffffffffffffffffffffffffffff16815260200190815260200160002060008373ffffffffffffffffffffffffffffffffffffffff1673ffffffffffffffffffffffffffffffffffffffff16815260200190815260200160002054905092915050565b600080600660008573ffffffffffffffffffffffffffffffffffffffff1673ffffffffffffffffffffffffffffffffffffffff168152602001908152602001600020600084815260200190815260200160002060003373ffffffffffffffffffffffffffffffffffffffff1673ffffffffffffffffffffffffffffffffffffffff1681526020019081526020016000206001015490508091505092915050565b600033905090565b600073ffffffffffffffffffffffffffffffffffffffff168373ffffffffffffffffffffffffffffffffffffffff161415610ccf576040517f08c379a0000000000000000000000000000000000000000000000000000000008152600401610cc69061170e565b60405180910390fd5b600073ffffffffffffffffffffffffffffffffffffffff168273ffffffffffffffffffffffffffffffffffffffff161415610d3f576040517f08c379a0000000000000000000000000000000000000000000000000000000008152600401610d369061166e565b60405180910390fd5b80600160008573ffffffffffffffffffffffffffffffffffffffff1673ffffffffffffffffffffffffffffffffffffffff16815260200190815260200160002060008473ffffffffffffffffffffffffffffffffffffffff1673ffffffffffffffffffffffffffffffffffffffff168152602001908152602001600020819055508173ffffffffffffffffffffffffffffffffffffffff168373ffffffffffffffffffffffffffffffffffffffff167f8c5be1e5ebec7d5bd14f71427d1e84f3dd0314c0f7b2291e5b200ac8c7c3b92583604051610e1d919061176e565b60405180910390a3505050565b600073ffffffffffffffffffffffffffffffffffffffff168373ffffffffffffffffffffffffffffffffffffffff161415610e9a576040517f08c379a0000000000000000000000000000000000000000000000000000000008152600401610e91906116ee565b60405180910390fd5b600073ffffffffffffffffffffffffffffffffffffffff168273ffffffffffffffffffffffffffffffffffffffff161415610f0a576040517f08c379a0000000000000000000000000000000000000000000000000000000008152600401610f019061164e565b60405180910390fd5b610f15838383611221565b60008060008573ffffffffffffffffffffffffffffffffffffffff1673ffffffffffffffffffffffffffffffffffffffff16815260200190815260200160002054905081811015610f9b576040517f08c379a0000000000000000000000000000000000000000000000000000000008152600401610f929061168e565b60405180910390fd5b8181036000808673ffffffffffffffffffffffffffffffffffffffff1673ffffffffffffffffffffffffffffffffffffffff16815260200190815260200160002081905550816000808573ffffffffffffffffffffffffffffffffffffffff1673ffffffffffffffffffffffffffffffffffffffff168152602001908152602001600020600082825461102e91906117e9565b925050819055508273ffffffffffffffffffffffffffffffffffffffff168473ffffffffffffffffffffffffffffffffffffffff167fddf252ad1be2c89b69c2b068fc378daa952ba7f163c4a11628f55a4df523b3ef84604051611092919061176e565b60405180910390a36110a5848484611226565b50505050565b600081836110b991906117e9565b905092915050565b600073ffffffffffffffffffffffffffffffffffffffff168273ffffffffffffffffffffffffffffffffffffffff161415611131576040517f08c379a00000000000000000000000000000000000000000000000000000000081526004016111289061174e565b60405180910390fd5b61113d60008383611221565b806002600082825461114f91906117e9565b92505081905550806000808473ffffffffffffffffffffffffffffffffffffffff1673ffffffffffffffffffffffffffffffffffffffff16815260200190815260200160002060008282546111a491906117e9565b925050819055508173ffffffffffffffffffffffffffffffffffffffff16600073ffffffffffffffffffffffffffffffffffffffff167fddf252ad1be2c89b69c2b068fc378daa952ba7f163c4a11628f55a4df523b3ef83604051611209919061176e565b60405180910390a361121d60008383611226565b5050565b505050565b505050565b60008135905061123a81611c09565b92915050565b60008135905061124f81611c20565b92915050565b60006020828403121561126757600080fd5b60006112758482850161122b565b91505092915050565b6000806040838503121561129157600080fd5b600061129f8582860161122b565b92505060206112b08582860161122b565b9150509250929050565b6000806000606084860312156112cf57600080fd5b60006112dd8682870161122b565b93505060206112ee8682870161122b565b92505060406112ff86828701611240565b9150509250925092565b6000806040838503121561131c57600080fd5b600061132a8582860161122b565b925050602061133b85828601611240565b9150509250929050565b60008060006060848603121561135a57600080fd5b60006113688682870161122b565b935050602061137986828701611240565b925050604061138a8682870161122b565b9150509250925092565b600080600080608085870312156113aa57600080fd5b60006113b88782880161122b565b94505060206113c987828801611240565b93505060406113da8782880161122b565b92505060606113eb87828801611240565b91505092959194509250565b60008060006060848603121561140c57600080fd5b600061141a8682870161122b565b935050602061142b86828701611240565b925050604061143c86828701611240565b9150509250925092565b61144f8161183f565b82525050565b61145e81611851565b82525050565b600061146f826117cd565b61147981856117d8565b9350611489818560208601611894565b61149281611957565b840191505092915050565b60006114aa6023836117d8565b91506114b582611968565b604082019050919050565b60006114cd6022836117d8565b91506114d8826119b7565b604082019050919050565b60006114f06026836117d8565b91506114fb82611a06565b604082019050919050565b60006115136025836117d8565b915061151e82611a55565b604082019050919050565b60006115366028836117d8565b915061154182611aa4565b604082019050919050565b60006115596025836117d8565b915061156482611af3565b604082019050919050565b600061157c6024836117d8565b915061158782611b42565b604082019050919050565b600061159f6025836117d8565b91506115aa82611b91565b604082019050919050565b60006115c2601f836117d8565b91506115cd82611be0565b602082019050919050565b6115e18161187d565b82525050565b6115f081611887565b82525050565b600060208201905061160b6000830184611446565b92915050565b60006020820190506116266000830184611455565b92915050565b600060208201905081810360008301526116468184611464565b905092915050565b600060208201905081810360008301526116678161149d565b9050919050565b60006020820190508181036000830152611687816114c0565b9050919050565b600060208201905081810360008301526116a7816114e3565b9050919050565b600060208201905081810360008301526116c781611506565b9050919050565b600060208201905081810360008301526116e781611529565b9050919050565b600060208201905081810360008301526117078161154c565b9050919050565b600060208201905081810360008301526117278161156f565b9050919050565b6000602082019050818103600083015261174781611592565b9050919050565b60006020820190508181036000830152611767816115b5565b9050919050565b600060208201905061178360008301846115d8565b92915050565b600060408201905061179e60008301856115d8565b6117ab60208301846115d8565b9392505050565b60006020820190506117c760008301846115e7565b92915050565b600081519050919050565b600082825260208201905092915050565b60006117f48261187d565b91506117ff8361187d565b9250827fffffffffffffffffffffffffffffffffffffffffffffffffffffffffffffffff03821115611834576118336118f9565b5b828201905092915050565b600061184a8261185d565b9050919050565b60008115159050919050565b600073ffffffffffffffffffffffffffffffffffffffff82169050919050565b6000819050919050565b600060ff82169050919050565b60005b838110156118b2578082015181840152602081019050611897565b838111156118c1576000848401525b50505050565b600060028204905060018216806118df57607f821691505b602082108114156118f3576118f2611928565b5b50919050565b7f4e487b7100000000000000000000000000000000000000000000000000000000600052601160045260246000fd5b7f4e487b7100000000000000000000000000000000000000000000000000000000600052602260045260246000fd5b6000601f19601f8301169050919050565b7f45524332303a207472616e7366657220746f20746865207a65726f206164647260008201527f6573730000000000000000000000000000000000000000000000000000000000602082015250565b7f45524332303a20617070726f766520746f20746865207a65726f20616464726560008201527f7373000000000000000000000000000000000000000000000000000000000000602082015250565b7f45524332303a207472616e7366657220616d6f756e742065786365656473206260008201527f616c616e63650000000000000000000000000000000000000000000000000000602082015250565b7f504f444f3a204f7665722074686520746f74616c206e756d626572206f66207660008201527f6f7465732e000000000000000000000000000000000000000000000000000000602082015250565b7f45524332303a207472616e7366657220616d6f756e742065786365656473206160008201527f6c6c6f77616e6365000000000000000000000000000000000000000000000000602082015250565b7f45524332303a207472616e736665722066726f6d20746865207a65726f20616460008201527f6472657373000000000000000000000000000000000000000000000000000000602082015250565b7f45524332303a20617070726f76652066726f6d20746865207a65726f2061646460008201527f7265737300000000000000000000000000000000000000000000000000000000602082015250565b7f45524332303a2064656372656173656420616c6c6f77616e63652062656c6f7760008201527f207a65726f000000000000000000000000000000000000000000000000000000602082015250565b7f45524332303a206d696e7420746f20746865207a65726f206164647265737300600082015250565b611c128161183f565b8114611c1d57600080fd5b50565b611c298161187d565b8114611c3457600080fd5b5056fea2646970667358221220d319be633add50fd40bdbff45cede9e8c8e9c42a72f7c613cb5b8cfa510c6b1c64736f6c63430008040033",
  "immutableReferences": {},
  "source": "// SPDX-License-Identifier: MIT\n\npragma solidity ^0.8.0;\nimport \"./openzeppelin/IERC20.sol\";\nimport \"./openzeppelin/ERC20.sol\";\nimport \"./openzeppelin/SafeMath.sol\";\n\ncontract Ballot is ERC20(\"Ballot\", \"BALLOT\") {\n    using SafeMath for uint256;\n    address public owner;\n    // \n    struct UserInfo {\n        uint256 donateAmount;\n        uint256 hasVoted;\n    }\n    //   ->  pid ->  \n    mapping(address => mapping(uint256 => mapping(address => UserInfo)))\n        public userInfo;\n\n    //   \n    modifier onlyOwner() {\n        require(msg.sender == owner);\n        _;\n    }\n\n    //   \n    function setOwner(address _to) public onlyOwner {\n        owner = _to;\n    }\n\n    //  \n    function mint(\n        address _group,\n        uint256 _pid,\n        address _to,\n        uint256 _amount\n    ) external onlyOwner {\n        //   \n        UserInfo storage user = userInfo[_group][_pid][_to];\n        //   \n        user.donateAmount = user.donateAmount.add(_amount);\n        //  \n        _mint(_to, _amount);\n        // TODO   \n    }\n\n    /**\n         \n     */\n    function getUserCurrentBallot(address _group, uint256 _pid)\n        public\n        view\n        returns (uint256)\n    {\n        //   \n        uint256 hasVoted = userInfo[_group][_pid][msg.sender].hasVoted;\n        // TODO   \n        //   \n        return hasVoted;\n    }\n\n    /**\n          \n\n        **\n            .\n     */\n    function voteToProject(\n        address _group,\n        uint256 _pid,\n        uint256 _amount\n    ) public returns (uint256) {\n        //    \n        UserInfo storage user = userInfo[_group][_pid][msg.sender];\n        //    \n        uint256 beforeHasVoted = user.hasVoted;\n        //    \n        uint256 afterhasVoted = beforeHasVoted.add(_amount);\n        //     .\n        require(\n            user.donateAmount < afterhasVoted,\n            \"PODO: Over the total number of votes.\"\n        );\n        //    \n        user.hasVoted = afterhasVoted;\n        //     \n        return _amount;\n    }\n}\n",
  "sourcePath": "/Users/minje/Desktop/recat/contracts/Ballot.sol",
  "compiler": {
    "name": "solc",
    "version": "0.8.4+commit.c7e474f2.Emscripten.clang"
  },
  "schemaVersion": "3.4.3",
  "updatedAt": "2021-09-30T12:20:07.149Z",
  "devdoc": {
    "kind": "dev",
    "methods": {
      "allowance(address,address)": {
        "details": "See {IERC20-allowance}."
      },
      "approve(address,uint256)": {
        "details": "See {IERC20-approve}. Requirements: - `spender` cannot be the zero address."
      },
      "balanceOf(address)": {
        "details": "See {IERC20-balanceOf}."
      },
      "decimals()": {
        "details": "Returns the number of decimals used to get its user representation. For example, if `decimals` equals `2`, a balance of `505` tokens should be displayed to a user as `5.05` (`505 / 10 ** 2`). Tokens usually opt for a value of 18, imitating the relationship between Ether and Wei. This is the value {ERC20} uses, unless this function is overridden; NOTE: This information is only used for _display_ purposes: it in no way affects any of the arithmetic of the contract, including {IERC20-balanceOf} and {IERC20-transfer}."
      },
      "decreaseAllowance(address,uint256)": {
        "details": "Atomically decreases the allowance granted to `spender` by the caller. This is an alternative to {approve} that can be used as a mitigation for problems described in {IERC20-approve}. Emits an {Approval} event indicating the updated allowance. Requirements: - `spender` cannot be the zero address. - `spender` must have allowance for the caller of at least `subtractedValue`."
      },
      "increaseAllowance(address,uint256)": {
        "details": "Atomically increases the allowance granted to `spender` by the caller. This is an alternative to {approve} that can be used as a mitigation for problems described in {IERC20-approve}. Emits an {Approval} event indicating the updated allowance. Requirements: - `spender` cannot be the zero address."
      },
      "name()": {
        "details": "Returns the name of the token."
      },
      "symbol()": {
        "details": "Returns the symbol of the token, usually a shorter version of the name."
      },
      "totalSupply()": {
        "details": "See {IERC20-totalSupply}."
      },
      "transfer(address,uint256)": {
        "details": "See {IERC20-transfer}. Requirements: - `recipient` cannot be the zero address. - the caller must have a balance of at least `amount`."
      },
      "transferFrom(address,address,uint256)": {
        "details": "See {IERC20-transferFrom}. Emits an {Approval} event indicating the updated allowance. This is not required by the EIP. See the note at the beginning of {ERC20}. Requirements: - `sender` and `recipient` cannot be the zero address. - `sender` must have a balance of at least `amount`. - the caller must have allowance for ``sender``'s tokens of at least `amount`."
      }
    },
    "version": 1
  },
  "userdoc": {
    "kind": "user",
    "methods": {
      "getUserCurrentBallot(address,uint256)": {
        "notice": " "
      },
      "voteToProject(address,uint256,uint256)": {
        "notice": "  **     ."
      }
    },
    "version": 1
  }
}