{
  "contractName": "Ballot",
  "abi": [
    {
      "anonymous": false,
      "inputs": [
        {
          "indexed": true,
          "internalType": "address",
          "name": "owner",
          "type": "address"
        },
        {
          "indexed": true,
          "internalType": "address",
          "name": "spender",
          "type": "address"
        },
        {
          "indexed": false,
          "internalType": "uint256",
          "name": "value",
          "type": "uint256"
        }
      ],
      "name": "Approval",
      "type": "event"
    },
    {
      "anonymous": false,
      "inputs": [
        {
          "indexed": true,
          "internalType": "address",
          "name": "from",
          "type": "address"
        },
        {
          "indexed": true,
          "internalType": "address",
          "name": "to",
          "type": "address"
        },
        {
          "indexed": false,
          "internalType": "uint256",
          "name": "value",
          "type": "uint256"
        }
      ],
      "name": "Transfer",
      "type": "event"
    },
    {
      "inputs": [
        {
          "internalType": "address",
          "name": "owner",
          "type": "address"
        },
        {
          "internalType": "address",
          "name": "spender",
          "type": "address"
        }
      ],
      "name": "allowance",
      "outputs": [
        {
          "internalType": "uint256",
          "name": "",
          "type": "uint256"
        }
      ],
      "stateMutability": "view",
      "type": "function"
    },
    {
      "inputs": [
        {
          "internalType": "address",
          "name": "spender",
          "type": "address"
        },
        {
          "internalType": "uint256",
          "name": "amount",
          "type": "uint256"
        }
      ],
      "name": "approve",
      "outputs": [
        {
          "internalType": "bool",
          "name": "",
          "type": "bool"
        }
      ],
      "stateMutability": "nonpayable",
      "type": "function"
    },
    {
      "inputs": [
        {
          "internalType": "address",
          "name": "account",
          "type": "address"
        }
      ],
      "name": "balanceOf",
      "outputs": [
        {
          "internalType": "uint256",
          "name": "",
          "type": "uint256"
        }
      ],
      "stateMutability": "view",
      "type": "function"
    },
    {
      "inputs": [],
      "name": "decimals",
      "outputs": [
        {
          "internalType": "uint8",
          "name": "",
          "type": "uint8"
        }
      ],
      "stateMutability": "view",
      "type": "function"
    },
    {
      "inputs": [
        {
          "internalType": "address",
          "name": "spender",
          "type": "address"
        },
        {
          "internalType": "uint256",
          "name": "subtractedValue",
          "type": "uint256"
        }
      ],
      "name": "decreaseAllowance",
      "outputs": [
        {
          "internalType": "bool",
          "name": "",
          "type": "bool"
        }
      ],
      "stateMutability": "nonpayable",
      "type": "function"
    },
    {
      "inputs": [
        {
          "internalType": "address",
          "name": "spender",
          "type": "address"
        },
        {
          "internalType": "uint256",
          "name": "addedValue",
          "type": "uint256"
        }
      ],
      "name": "increaseAllowance",
      "outputs": [
        {
          "internalType": "bool",
          "name": "",
          "type": "bool"
        }
      ],
      "stateMutability": "nonpayable",
      "type": "function"
    },
    {
      "inputs": [],
      "name": "name",
      "outputs": [
        {
          "internalType": "string",
          "name": "",
          "type": "string"
        }
      ],
      "stateMutability": "view",
      "type": "function"
    },
    {
      "inputs": [],
      "name": "owner",
      "outputs": [
        {
          "internalType": "address",
          "name": "",
          "type": "address"
        }
      ],
      "stateMutability": "view",
      "type": "function"
    },
    {
      "inputs": [],
      "name": "symbol",
      "outputs": [
        {
          "internalType": "string",
          "name": "",
          "type": "string"
        }
      ],
      "stateMutability": "view",
      "type": "function"
    },
    {
      "inputs": [],
      "name": "totalSupply",
      "outputs": [
        {
          "internalType": "uint256",
          "name": "",
          "type": "uint256"
        }
      ],
      "stateMutability": "view",
      "type": "function"
    },
    {
      "inputs": [
        {
          "internalType": "address",
          "name": "recipient",
          "type": "address"
        },
        {
          "internalType": "uint256",
          "name": "amount",
          "type": "uint256"
        }
      ],
      "name": "transfer",
      "outputs": [
        {
          "internalType": "bool",
          "name": "",
          "type": "bool"
        }
      ],
      "stateMutability": "nonpayable",
      "type": "function"
    },
    {
      "inputs": [
        {
          "internalType": "address",
          "name": "sender",
          "type": "address"
        },
        {
          "internalType": "address",
          "name": "recipient",
          "type": "address"
        },
        {
          "internalType": "uint256",
          "name": "amount",
          "type": "uint256"
        }
      ],
      "name": "transferFrom",
      "outputs": [
        {
          "internalType": "bool",
          "name": "",
          "type": "bool"
        }
      ],
      "stateMutability": "nonpayable",
      "type": "function"
    },
    {
      "inputs": [
        {
          "internalType": "address",
          "name": "",
          "type": "address"
        },
        {
          "internalType": "uint256",
          "name": "",
          "type": "uint256"
        },
        {
          "internalType": "address",
          "name": "",
          "type": "address"
        }
      ],
      "name": "userInfo",
      "outputs": [
        {
          "internalType": "uint256",
          "name": "amount",
          "type": "uint256"
        }
      ],
      "stateMutability": "view",
      "type": "function"
    },
    {
      "inputs": [
        {
          "internalType": "address",
          "name": "_to",
          "type": "address"
        }
      ],
      "name": "setOwner",
      "outputs": [],
      "stateMutability": "nonpayable",
      "type": "function"
    },
    {
      "inputs": [
        {
          "internalType": "address",
          "name": "_group",
          "type": "address"
        },
        {
          "internalType": "uint256",
          "name": "_pid",
          "type": "uint256"
        },
        {
          "internalType": "address",
          "name": "_to",
          "type": "address"
        },
        {
          "internalType": "uint256",
          "name": "_amount",
          "type": "uint256"
        }
      ],
      "name": "mint",
      "outputs": [],
      "stateMutability": "nonpayable",
      "type": "function"
    },
    {
      "inputs": [
        {
          "internalType": "address",
          "name": "_group",
          "type": "address"
        },
        {
          "internalType": "uint256",
          "name": "_pid",
          "type": "uint256"
        }
      ],
      "name": "getUserCurrentBallot",
      "outputs": [
        {
          "components": [
            {
              "internalType": "uint256",
              "name": "amount",
              "type": "uint256"
            }
          ],
          "internalType": "struct Ballot.UserInfo",
          "name": "",
          "type": "tuple"
        }
      ],
      "stateMutability": "view",
      "type": "function"
    }
  ],
  "bytecode": "0x60806040523480156200001157600080fd5b506040518060400160405280600681526020017f42616c6c6f7400000000000000000000000000000000000000000000000000008152506040518060400160405280600681526020017f42414c4c4f540000000000000000000000000000000000000000000000000000815250816003908051906020019062000096929190620000b8565b508060049080519060200190620000af929190620000b8565b505050620001cd565b828054620000c69062000168565b90600052602060002090601f016020900481019282620000ea576000855562000136565b82601f106200010557805160ff191683800117855562000136565b8280016001018555821562000136579182015b828111156200013557825182559160200191906001019062000118565b5b50905062000145919062000149565b5090565b5b80821115620001645760008160009055506001016200014a565b5090565b600060028204905060018216806200018157607f821691505b602082108114156200019857620001976200019e565b5b50919050565b7f4e487b7100000000000000000000000000000000000000000000000000000000600052602260045260246000fd5b611a8a80620001dd6000396000f3fe608060405234801561001057600080fd5b50600436106101005760003560e01c80636ec0a02911610097578063a457c2d711610066578063a457c2d7146102c3578063a9059cbb146102f3578063dd62ed3e14610323578063ef8c7a811461035357610100565b80636ec0a0291461022757806370a08231146102575780638da5cb5b1461028757806395d89b41146102a557610100565b806323b872dd116100d357806323b872dd1461018d578063313ce567146101bd57806339509351146101db5780633c173a4f1461020b57610100565b806306fdde0314610105578063095ea7b31461012357806313af40351461015357806318160ddd1461016f575b600080fd5b61010d610383565b60405161011a91906114c6565b60405180910390f35b61013d600480360381019061013891906111ea565b610415565b60405161014a91906114ab565b60405180910390f35b61016d60048036038101906101689190611136565b610433565b005b6101776104d1565b6040516101849190611603565b60405180910390f35b6101a760048036038101906101a2919061119b565b6104db565b6040516101b491906114ab565b60405180910390f35b6101c56105d3565b6040516101d2919061161e565b60405180910390f35b6101f560048036038101906101f091906111ea565b6105d8565b60405161020291906114ab565b60405180910390f35b61022560048036038101906102209190611275565b610684565b005b610241600480360381019061023c9190611226565b6107a5565b60405161024e9190611603565b60405180910390f35b610271600480360381019061026c9190611136565b6107dd565b60405161027e9190611603565b60405180910390f35b61028f610825565b60405161029c9190611490565b60405180910390f35b6102ad61084b565b6040516102ba91906114c6565b60405180910390f35b6102dd60048036038101906102d891906111ea565b6108dd565b6040516102ea91906114ab565b60405180910390f35b61030d600480360381019061030891906111ea565b6109c8565b60405161031a91906114ab565b60405180910390f35b61033d6004803603810190610338919061115f565b6109e6565b60405161034a9190611603565b60405180910390f35b61036d600480360381019061036891906111ea565b610a6d565b60405161037a91906115e8565b60405180910390f35b60606003805461039290611733565b80601f01602080910402602001604051908101604052809291908181526020018280546103be90611733565b801561040b5780601f106103e05761010080835404028352916020019161040b565b820191906000526020600020905b8154815290600101906020018083116103ee57829003601f168201915b5050505050905090565b6000610429610422610b25565b8484610b2d565b6001905092915050565b600560009054906101000a900473ffffffffffffffffffffffffffffffffffffffff1673ffffffffffffffffffffffffffffffffffffffff163373ffffffffffffffffffffffffffffffffffffffff161461048d57600080fd5b80600560006101000a81548173ffffffffffffffffffffffffffffffffffffffff021916908373ffffffffffffffffffffffffffffffffffffffff16021790555050565b6000600254905090565b60006104e8848484610cf8565b6000600160008673ffffffffffffffffffffffffffffffffffffffff1673ffffffffffffffffffffffffffffffffffffffff1681526020019081526020016000206000610533610b25565b73ffffffffffffffffffffffffffffffffffffffff1673ffffffffffffffffffffffffffffffffffffffff168152602001908152602001600020549050828110156105b3576040517f08c379a00000000000000000000000000000000000000000000000000000000081526004016105aa90611548565b60405180910390fd5b6105c7856105bf610b25565b858403610b2d565b60019150509392505050565b600090565b600061067a6105e5610b25565b8484600160006105f3610b25565b73ffffffffffffffffffffffffffffffffffffffff1673ffffffffffffffffffffffffffffffffffffffff16815260200190815260200160002060008873ffffffffffffffffffffffffffffffffffffffff1673ffffffffffffffffffffffffffffffffffffffff168152602001908152602001600020546106759190611655565b610b2d565b6001905092915050565b600560009054906101000a900473ffffffffffffffffffffffffffffffffffffffff1673ffffffffffffffffffffffffffffffffffffffff163373ffffffffffffffffffffffffffffffffffffffff16146106de57600080fd5b6000600660008673ffffffffffffffffffffffffffffffffffffffff1673ffffffffffffffffffffffffffffffffffffffff168152602001908152602001600020600085815260200190815260200160002060008473ffffffffffffffffffffffffffffffffffffffff1673ffffffffffffffffffffffffffffffffffffffff168152602001908152602001600020905060008160000154905061078b8382610f7990919063ffffffff16565b826000018190555061079d8484610f8f565b505050505050565b600660205282600052604060002060205281600052604060002060205280600052604060002060009250925050508060000154905081565b60008060008373ffffffffffffffffffffffffffffffffffffffff1673ffffffffffffffffffffffffffffffffffffffff168152602001908152602001600020549050919050565b600560009054906101000a900473ffffffffffffffffffffffffffffffffffffffff1681565b60606004805461085a90611733565b80601f016020809104026020016040519081016040528092919081815260200182805461088690611733565b80156108d35780601f106108a8576101008083540402835291602001916108d3565b820191906000526020600020905b8154815290600101906020018083116108b657829003601f168201915b5050505050905090565b600080600160006108ec610b25565b73ffffffffffffffffffffffffffffffffffffffff1673ffffffffffffffffffffffffffffffffffffffff16815260200190815260200160002060008573ffffffffffffffffffffffffffffffffffffffff1673ffffffffffffffffffffffffffffffffffffffff168152602001908152602001600020549050828110156109a9576040517f08c379a00000000000000000000000000000000000000000000000000000000081526004016109a0906115a8565b60405180910390fd5b6109bd6109b4610b25565b85858403610b2d565b600191505092915050565b60006109dc6109d5610b25565b8484610cf8565b6001905092915050565b6000600160008473ffffffffffffffffffffffffffffffffffffffff1673ffffffffffffffffffffffffffffffffffffffff16815260200190815260200160002060008373ffffffffffffffffffffffffffffffffffffffff1673ffffffffffffffffffffffffffffffffffffffff16815260200190815260200160002054905092915050565b610a756110f9565b6000600660008573ffffffffffffffffffffffffffffffffffffffff1673ffffffffffffffffffffffffffffffffffffffff168152602001908152602001600020600084815260200190815260200160002060003373ffffffffffffffffffffffffffffffffffffffff1673ffffffffffffffffffffffffffffffffffffffff16815260200190815260200160002090508060405180602001604052908160008201548152505091505092915050565b600033905090565b600073ffffffffffffffffffffffffffffffffffffffff168373ffffffffffffffffffffffffffffffffffffffff161415610b9d576040517f08c379a0000000000000000000000000000000000000000000000000000000008152600401610b9490611588565b60405180910390fd5b600073ffffffffffffffffffffffffffffffffffffffff168273ffffffffffffffffffffffffffffffffffffffff161415610c0d576040517f08c379a0000000000000000000000000000000000000000000000000000000008152600401610c0490611508565b60405180910390fd5b80600160008573ffffffffffffffffffffffffffffffffffffffff1673ffffffffffffffffffffffffffffffffffffffff16815260200190815260200160002060008473ffffffffffffffffffffffffffffffffffffffff1673ffffffffffffffffffffffffffffffffffffffff168152602001908152602001600020819055508173ffffffffffffffffffffffffffffffffffffffff168373ffffffffffffffffffffffffffffffffffffffff167f8c5be1e5ebec7d5bd14f71427d1e84f3dd0314c0f7b2291e5b200ac8c7c3b92583604051610ceb9190611603565b60405180910390a3505050565b600073ffffffffffffffffffffffffffffffffffffffff168373ffffffffffffffffffffffffffffffffffffffff161415610d68576040517f08c379a0000000000000000000000000000000000000000000000000000000008152600401610d5f90611568565b60405180910390fd5b600073ffffffffffffffffffffffffffffffffffffffff168273ffffffffffffffffffffffffffffffffffffffff161415610dd8576040517f08c379a0000000000000000000000000000000000000000000000000000000008152600401610dcf906114e8565b60405180910390fd5b610de38383836110ef565b60008060008573ffffffffffffffffffffffffffffffffffffffff1673ffffffffffffffffffffffffffffffffffffffff16815260200190815260200160002054905081811015610e69576040517f08c379a0000000000000000000000000000000000000000000000000000000008152600401610e6090611528565b60405180910390fd5b8181036000808673ffffffffffffffffffffffffffffffffffffffff1673ffffffffffffffffffffffffffffffffffffffff16815260200190815260200160002081905550816000808573ffffffffffffffffffffffffffffffffffffffff1673ffffffffffffffffffffffffffffffffffffffff1681526020019081526020016000206000828254610efc9190611655565b925050819055508273ffffffffffffffffffffffffffffffffffffffff168473ffffffffffffffffffffffffffffffffffffffff167fddf252ad1be2c89b69c2b068fc378daa952ba7f163c4a11628f55a4df523b3ef84604051610f609190611603565b60405180910390a3610f738484846110f4565b50505050565b60008183610f879190611655565b905092915050565b600073ffffffffffffffffffffffffffffffffffffffff168273ffffffffffffffffffffffffffffffffffffffff161415610fff576040517f08c379a0000000000000000000000000000000000000000000000000000000008152600401610ff6906115c8565b60405180910390fd5b61100b600083836110ef565b806002600082825461101d9190611655565b92505081905550806000808473ffffffffffffffffffffffffffffffffffffffff1673ffffffffffffffffffffffffffffffffffffffff16815260200190815260200160002060008282546110729190611655565b925050819055508173ffffffffffffffffffffffffffffffffffffffff16600073ffffffffffffffffffffffffffffffffffffffff167fddf252ad1be2c89b69c2b068fc378daa952ba7f163c4a11628f55a4df523b3ef836040516110d79190611603565b60405180910390a36110eb600083836110f4565b5050565b505050565b505050565b6040518060200160405280600081525090565b60008135905061111b81611a26565b92915050565b60008135905061113081611a3d565b92915050565b60006020828403121561114857600080fd5b60006111568482850161110c565b91505092915050565b6000806040838503121561117257600080fd5b60006111808582860161110c565b92505060206111918582860161110c565b9150509250929050565b6000806000606084860312156111b057600080fd5b60006111be8682870161110c565b93505060206111cf8682870161110c565b92505060406111e086828701611121565b9150509250925092565b600080604083850312156111fd57600080fd5b600061120b8582860161110c565b925050602061121c85828601611121565b9150509250929050565b60008060006060848603121561123b57600080fd5b60006112498682870161110c565b935050602061125a86828701611121565b925050604061126b8682870161110c565b9150509250925092565b6000806000806080858703121561128b57600080fd5b60006112998782880161110c565b94505060206112aa87828801611121565b93505060406112bb8782880161110c565b92505060606112cc87828801611121565b91505092959194509250565b6112e1816116ab565b82525050565b6112f0816116bd565b82525050565b600061130182611639565b61130b8185611644565b935061131b818560208601611700565b611324816117c3565b840191505092915050565b600061133c602383611644565b9150611347826117d4565b604082019050919050565b600061135f602283611644565b915061136a82611823565b604082019050919050565b6000611382602683611644565b915061138d82611872565b604082019050919050565b60006113a5602883611644565b91506113b0826118c1565b604082019050919050565b60006113c8602583611644565b91506113d382611910565b604082019050919050565b60006113eb602483611644565b91506113f68261195f565b604082019050919050565b600061140e602583611644565b9150611419826119ae565b604082019050919050565b6000611431601f83611644565b915061143c826119fd565b602082019050919050565b60208201600082015161145d6000850182611463565b50505050565b61146c816116e9565b82525050565b61147b816116e9565b82525050565b61148a816116f3565b82525050565b60006020820190506114a560008301846112d8565b92915050565b60006020820190506114c060008301846112e7565b92915050565b600060208201905081810360008301526114e081846112f6565b905092915050565b600060208201905081810360008301526115018161132f565b9050919050565b6000602082019050818103600083015261152181611352565b9050919050565b6000602082019050818103600083015261154181611375565b9050919050565b6000602082019050818103600083015261156181611398565b9050919050565b60006020820190508181036000830152611581816113bb565b9050919050565b600060208201905081810360008301526115a1816113de565b9050919050565b600060208201905081810360008301526115c181611401565b9050919050565b600060208201905081810360008301526115e181611424565b9050919050565b60006020820190506115fd6000830184611447565b92915050565b60006020820190506116186000830184611472565b92915050565b60006020820190506116336000830184611481565b92915050565b600081519050919050565b600082825260208201905092915050565b6000611660826116e9565b915061166b836116e9565b9250827fffffffffffffffffffffffffffffffffffffffffffffffffffffffffffffffff038211156116a05761169f611765565b5b828201905092915050565b60006116b6826116c9565b9050919050565b60008115159050919050565b600073ffffffffffffffffffffffffffffffffffffffff82169050919050565b6000819050919050565b600060ff82169050919050565b60005b8381101561171e578082015181840152602081019050611703565b8381111561172d576000848401525b50505050565b6000600282049050600182168061174b57607f821691505b6020821081141561175f5761175e611794565b5b50919050565b7f4e487b7100000000000000000000000000000000000000000000000000000000600052601160045260246000fd5b7f4e487b7100000000000000000000000000000000000000000000000000000000600052602260045260246000fd5b6000601f19601f8301169050919050565b7f45524332303a207472616e7366657220746f20746865207a65726f206164647260008201527f6573730000000000000000000000000000000000000000000000000000000000602082015250565b7f45524332303a20617070726f766520746f20746865207a65726f20616464726560008201527f7373000000000000000000000000000000000000000000000000000000000000602082015250565b7f45524332303a207472616e7366657220616d6f756e742065786365656473206260008201527f616c616e63650000000000000000000000000000000000000000000000000000602082015250565b7f45524332303a207472616e7366657220616d6f756e742065786365656473206160008201527f6c6c6f77616e6365000000000000000000000000000000000000000000000000602082015250565b7f45524332303a207472616e736665722066726f6d20746865207a65726f20616460008201527f6472657373000000000000000000000000000000000000000000000000000000602082015250565b7f45524332303a20617070726f76652066726f6d20746865207a65726f2061646460008201527f7265737300000000000000000000000000000000000000000000000000000000602082015250565b7f45524332303a2064656372656173656420616c6c6f77616e63652062656c6f7760008201527f207a65726f000000000000000000000000000000000000000000000000000000602082015250565b7f45524332303a206d696e7420746f20746865207a65726f206164647265737300600082015250565b611a2f816116ab565b8114611a3a57600080fd5b50565b611a46816116e9565b8114611a5157600080fd5b5056fea264697066735822122057fb19ae6f3aca21fb887f4e96b9645fac61822eac8335b97eb384149474d97064736f6c63430008040033",
  "immutableReferences": {},
  "source": "// SPDX-License-Identifier: MIT\n\npragma solidity ^0.8.0;\nimport \"./openzeppelin/IERC20.sol\";\nimport \"./openzeppelin/ERC20.sol\";\nimport \"./openzeppelin/SafeMath.sol\";\n\ncontract Ballot is ERC20(\"Ballot\", \"BALLOT\") {\n    using SafeMath for uint256;\n    address public owner;\n    // \n    struct UserInfo {\n        uint256 amount;\n    }\n    //   ->  pid ->  \n    mapping(address => mapping(uint256 => mapping(address => UserInfo)))\n        public userInfo;\n\n    //   \n    modifier onlyOwner() {\n        require(msg.sender == owner);\n        _;\n    }\n\n    //   \n    function setOwner(address _to) public onlyOwner {\n        owner = _to;\n    }\n\n    //  \n    function mint(\n        address _group,\n        uint256 _pid,\n        address _to,\n        uint256 _amount\n    ) external onlyOwner {\n        //   \n        UserInfo storage user = userInfo[_group][_pid][_to];\n        //   \n        uint256 beforeAmount = user.amount;\n        //    \n        user.amount = beforeAmount.add(_amount);\n        //  \n        _mint(_to, _amount);\n        // TODO   \n    }\n\n    /**\n           \n     */\n    function getUserCurrentBallot(address _group, uint256 _pid)\n        public\n        view\n        returns (UserInfo memory)\n    {\n        //   \n        UserInfo storage user = userInfo[_group][_pid][msg.sender];\n        //   \n        return user;\n    }\n}\n",
  "sourcePath": "/Users/minje/Desktop/recat/contracts/Ballot.sol",
  "compiler": {
    "name": "solc",
    "version": "0.8.4+commit.c7e474f2.Emscripten.clang"
  },
  "schemaVersion": "3.4.3",
  "updatedAt": "2021-09-23T09:49:59.603Z",
  "devdoc": {
    "kind": "dev",
    "methods": {
      "allowance(address,address)": {
        "details": "See {IERC20-allowance}."
      },
      "approve(address,uint256)": {
        "details": "See {IERC20-approve}. Requirements: - `spender` cannot be the zero address."
      },
      "balanceOf(address)": {
        "details": "See {IERC20-balanceOf}."
      },
      "decimals()": {
        "details": "Returns the number of decimals used to get its user representation. For example, if `decimals` equals `2`, a balance of `505` tokens should be displayed to a user as `5.05` (`505 / 10 ** 2`). Tokens usually opt for a value of 18, imitating the relationship between Ether and Wei. This is the value {ERC20} uses, unless this function is overridden; NOTE: This information is only used for _display_ purposes: it in no way affects any of the arithmetic of the contract, including {IERC20-balanceOf} and {IERC20-transfer}."
      },
      "decreaseAllowance(address,uint256)": {
        "details": "Atomically decreases the allowance granted to `spender` by the caller. This is an alternative to {approve} that can be used as a mitigation for problems described in {IERC20-approve}. Emits an {Approval} event indicating the updated allowance. Requirements: - `spender` cannot be the zero address. - `spender` must have allowance for the caller of at least `subtractedValue`."
      },
      "increaseAllowance(address,uint256)": {
        "details": "Atomically increases the allowance granted to `spender` by the caller. This is an alternative to {approve} that can be used as a mitigation for problems described in {IERC20-approve}. Emits an {Approval} event indicating the updated allowance. Requirements: - `spender` cannot be the zero address."
      },
      "name()": {
        "details": "Returns the name of the token."
      },
      "symbol()": {
        "details": "Returns the symbol of the token, usually a shorter version of the name."
      },
      "totalSupply()": {
        "details": "See {IERC20-totalSupply}."
      },
      "transfer(address,uint256)": {
        "details": "See {IERC20-transfer}. Requirements: - `recipient` cannot be the zero address. - the caller must have a balance of at least `amount`."
      },
      "transferFrom(address,address,uint256)": {
        "details": "See {IERC20-transferFrom}. Emits an {Approval} event indicating the updated allowance. This is not required by the EIP. See the note at the beginning of {ERC20}. Requirements: - `sender` and `recipient` cannot be the zero address. - `sender` must have a balance of at least `amount`. - the caller must have allowance for ``sender``'s tokens of at least `amount`."
      }
    },
    "version": 1
  },
  "userdoc": {
    "kind": "user",
    "methods": {
      "getUserCurrentBallot(address,uint256)": {
        "notice": "   "
      }
    },
    "version": 1
  }
}