{
  "contractName": "FundRaise",
  "abi": [
    {
      "inputs": [
        {
          "internalType": "contract IERC20",
          "name": "_podo",
          "type": "address"
        },
        {
          "internalType": "contract BallotInterface",
          "name": "_ballot",
          "type": "address"
        }
      ],
      "stateMutability": "nonpayable",
      "type": "constructor"
    },
    {
      "inputs": [],
      "name": "ballot",
      "outputs": [
        {
          "internalType": "contract BallotInterface",
          "name": "",
          "type": "address"
        }
      ],
      "stateMutability": "view",
      "type": "function"
    },
    {
      "inputs": [],
      "name": "empty",
      "outputs": [
        {
          "internalType": "bytes32",
          "name": "",
          "type": "bytes32"
        }
      ],
      "stateMutability": "view",
      "type": "function"
    },
    {
      "inputs": [
        {
          "internalType": "address",
          "name": "",
          "type": "address"
        }
      ],
      "name": "groupInfo",
      "outputs": [
        {
          "internalType": "string",
          "name": "name",
          "type": "string"
        },
        {
          "internalType": "string",
          "name": "desc",
          "type": "string"
        }
      ],
      "stateMutability": "view",
      "type": "function"
    },
    {
      "inputs": [],
      "name": "podo",
      "outputs": [
        {
          "internalType": "contract IERC20",
          "name": "",
          "type": "address"
        }
      ],
      "stateMutability": "view",
      "type": "function"
    },
    {
      "inputs": [
        {
          "internalType": "string",
          "name": "_name",
          "type": "string"
        },
        {
          "internalType": "string",
          "name": "_desc",
          "type": "string"
        }
      ],
      "name": "createGroup",
      "outputs": [],
      "stateMutability": "nonpayable",
      "type": "function"
    },
    {
      "inputs": [
        {
          "internalType": "string",
          "name": "_title",
          "type": "string"
        },
        {
          "internalType": "string",
          "name": "_desc",
          "type": "string"
        },
        {
          "internalType": "uint256",
          "name": "_targetMoney",
          "type": "uint256"
        },
        {
          "internalType": "uint256",
          "name": "_startBlock",
          "type": "uint256"
        },
        {
          "internalType": "uint256",
          "name": "_endBlock",
          "type": "uint256"
        }
      ],
      "name": "createProject",
      "outputs": [],
      "stateMutability": "nonpayable",
      "type": "function"
    },
    {
      "inputs": [
        {
          "internalType": "address",
          "name": "_group",
          "type": "address"
        },
        {
          "internalType": "uint256",
          "name": "_pid",
          "type": "uint256"
        },
        {
          "internalType": "uint256",
          "name": "_amount",
          "type": "uint256"
        }
      ],
      "name": "donateToProject",
      "outputs": [],
      "stateMutability": "nonpayable",
      "type": "function"
    },
    {
      "inputs": [
        {
          "internalType": "address",
          "name": "_group",
          "type": "address"
        }
      ],
      "name": "viewGroupProjectsInfo",
      "outputs": [
        {
          "components": [
            {
              "internalType": "string",
              "name": "title",
              "type": "string"
            },
            {
              "internalType": "string",
              "name": "desc",
              "type": "string"
            },
            {
              "internalType": "uint256",
              "name": "targetMoney",
              "type": "uint256"
            },
            {
              "internalType": "uint256",
              "name": "currentMoney",
              "type": "uint256"
            },
            {
              "internalType": "uint256",
              "name": "startBlock",
              "type": "uint256"
            },
            {
              "internalType": "uint256",
              "name": "endBlock",
              "type": "uint256"
            }
          ],
          "internalType": "struct FundRaise.ProjectInfo[]",
          "name": "",
          "type": "tuple[]"
        }
      ],
      "stateMutability": "view",
      "type": "function"
    },
    {
      "inputs": [
        {
          "internalType": "address",
          "name": "_group",
          "type": "address"
        },
        {
          "internalType": "uint256",
          "name": "_pid",
          "type": "uint256"
        }
      ],
      "name": "viewGroupProjectInfo",
      "outputs": [
        {
          "components": [
            {
              "internalType": "string",
              "name": "title",
              "type": "string"
            },
            {
              "internalType": "string",
              "name": "desc",
              "type": "string"
            },
            {
              "internalType": "uint256",
              "name": "targetMoney",
              "type": "uint256"
            },
            {
              "internalType": "uint256",
              "name": "currentMoney",
              "type": "uint256"
            },
            {
              "internalType": "uint256",
              "name": "startBlock",
              "type": "uint256"
            },
            {
              "internalType": "uint256",
              "name": "endBlock",
              "type": "uint256"
            }
          ],
          "internalType": "struct FundRaise.ProjectInfo",
          "name": "",
          "type": "tuple"
        }
      ],
      "stateMutability": "view",
      "type": "function"
    },
    {
      "inputs": [],
      "name": "hasGroup",
      "outputs": [
        {
          "internalType": "bool",
          "name": "",
          "type": "bool"
        }
      ],
      "stateMutability": "view",
      "type": "function"
    }
  ],
  "bytecode": "0x608060405260405180602001604052806000815250805190602001206001553480156200002b57600080fd5b5060405162001f3d38038062001f3d833981810160405281019062000051919062000108565b816000806101000a81548173ffffffffffffffffffffffffffffffffffffffff021916908373ffffffffffffffffffffffffffffffffffffffff16021790555080600260006101000a81548173ffffffffffffffffffffffffffffffffffffffff021916908373ffffffffffffffffffffffffffffffffffffffff1602179055505050620001d9565b600081519050620000eb81620001a5565b92915050565b6000815190506200010281620001bf565b92915050565b600080604083850312156200011c57600080fd5b60006200012c85828601620000f1565b92505060206200013f85828601620000da565b9150509250929050565b6000620001568262000185565b9050919050565b60006200016a8262000149565b9050919050565b60006200017e8262000149565b9050919050565b600073ffffffffffffffffffffffffffffffffffffffff82169050919050565b620001b0816200015d565b8114620001bc57600080fd5b50565b620001ca8162000171565b8114620001d657600080fd5b50565b611d5480620001e96000396000f3fe608060405234801561001057600080fd5b506004361061009e5760003560e01c8063b8f2088011610066578063b8f208801461015c578063e5b23b9c14610178578063ee0f2f0714610196578063f2a75fe4146101c6578063f81bf601146101e45761009e565b80631e4a97dd146100a357806369fd3e1a146100bf578063938a111b146100dd578063a01a532f1461010d578063ac3910a21461013e575b600080fd5b6100bd60048036038101906100b8919061129a565b610200565b005b6100c7610313565b6040516100d491906117ac565b60405180910390f35b6100f760048036038101906100f291906111bd565b610337565b6040516101049190611739565b60405180910390f35b610127600480360381019061012291906111bd565b61052a565b6040516101359291906117c7565b60405180910390f35b61014661065e565b6040516101539190611791565b60405180910390f35b61017660048036038101906101719190611222565b610684565b005b610180610945565b60405161018d919061175b565b60405180910390f35b6101b060048036038101906101ab91906111e6565b610c8a565b6040516101bd919061187e565b60405180910390f35b6101ce610e79565b6040516101db9190611776565b60405180910390f35b6101fe60048036038101906101f99190611306565b610e7f565b005b6001548280519060200120141580156102225750600154818051906020012014155b610261576040517f08c379a00000000000000000000000000000000000000000000000000000000081526004016102589061183e565b60405180910390fd5b81600360003373ffffffffffffffffffffffffffffffffffffffff1673ffffffffffffffffffffffffffffffffffffffff16815260200190815260200160002060000190805190602001906102b792919061103d565b5080600360003373ffffffffffffffffffffffffffffffffffffffff1673ffffffffffffffffffffffffffffffffffffffff168152602001908152602001600020600101908051906020019061030e92919061103d565b505050565b60008054906101000a900473ffffffffffffffffffffffffffffffffffffffff1681565b60606000600360008473ffffffffffffffffffffffffffffffffffffffff1673ffffffffffffffffffffffffffffffffffffffff168152602001908152602001600020600201805480602002602001604051908101604052809291908181526020016000905b8282101561051b57838290600052602060002090600602016040518060c00160405290816000820180546103d090611ac2565b80601f01602080910402602001604051908101604052809291908181526020018280546103fc90611ac2565b80156104495780601f1061041e57610100808354040283529160200191610449565b820191906000526020600020905b81548152906001019060200180831161042c57829003601f168201915b5050505050815260200160018201805461046290611ac2565b80601f016020809104026020016040519081016040528092919081815260200182805461048e90611ac2565b80156104db5780601f106104b0576101008083540402835291602001916104db565b820191906000526020600020905b8154815290600101906020018083116104be57829003601f168201915b505050505081526020016002820154815260200160038201548152602001600482015481526020016005820154815250508152602001906001019061039d565b50505050905080915050919050565b600360205280600052604060002060009150905080600001805461054d90611ac2565b80601f016020809104026020016040519081016040528092919081815260200182805461057990611ac2565b80156105c65780601f1061059b576101008083540402835291602001916105c6565b820191906000526020600020905b8154815290600101906020018083116105a957829003601f168201915b5050505050908060010180546105db90611ac2565b80601f016020809104026020016040519081016040528092919081815260200182805461060790611ac2565b80156106545780601f1061062957610100808354040283529160200191610654565b820191906000526020600020905b81548152906001019060200180831161063757829003601f168201915b5050505050905082565b600260009054906101000a900473ffffffffffffffffffffffffffffffffffffffff1681565b816001600360008673ffffffffffffffffffffffffffffffffffffffff1673ffffffffffffffffffffffffffffffffffffffff168152602001908152602001600020600201805490506106d791906119b2565b1015610718576040517f08c379a000000000000000000000000000000000000000000000000000000000815260040161070f9061185e565b60405180910390fd5b6000811161075b576040517f08c379a00000000000000000000000000000000000000000000000000000000081526004016107529061181e565b60405180910390fd5b60008054906101000a900473ffffffffffffffffffffffffffffffffffffffff1673ffffffffffffffffffffffffffffffffffffffff166323b872dd3330846040518463ffffffff1660e01b81526004016107b8939291906116bd565b602060405180830381600087803b1580156107d257600080fd5b505af11580156107e6573d6000803e3d6000fd5b505050506040513d601f19601f8201168201806040525081019061080a9190611271565b5080600360008573ffffffffffffffffffffffffffffffffffffffff1673ffffffffffffffffffffffffffffffffffffffff1681526020019081526020016000206002018381548110610886577f4e487b7100000000000000000000000000000000000000000000000000000000600052603260045260246000fd5b906000526020600020906006020160030160008282546108a6919061195c565b92505081905550600260009054906101000a900473ffffffffffffffffffffffffffffffffffffffff1673ffffffffffffffffffffffffffffffffffffffff16633c173a4f848433856040518563ffffffff1660e01b815260040161090e94939291906116f4565b600060405180830381600087803b15801561092857600080fd5b505af115801561093c573d6000803e3d6000fd5b50505050505050565b600080600360003373ffffffffffffffffffffffffffffffffffffffff1673ffffffffffffffffffffffffffffffffffffffff1681526020019081526020016000206040518060600160405290816000820180546109a290611ac2565b80601f01602080910402602001604051908101604052809291908181526020018280546109ce90611ac2565b8015610a1b5780601f106109f057610100808354040283529160200191610a1b565b820191906000526020600020905b8154815290600101906020018083116109fe57829003601f168201915b50505050508152602001600182018054610a3490611ac2565b80601f0160208091040260200160405190810160405280929190818152602001828054610a6090611ac2565b8015610aad5780601f10610a8257610100808354040283529160200191610aad565b820191906000526020600020905b815481529060010190602001808311610a9057829003601f168201915b5050505050815260200160028201805480602002602001604051908101604052809291908181526020016000905b82821015610c5957838290600052602060002090600602016040518060c0016040529081600082018054610b0e90611ac2565b80601f0160208091040260200160405190810160405280929190818152602001828054610b3a90611ac2565b8015610b875780601f10610b5c57610100808354040283529160200191610b87565b820191906000526020600020905b815481529060010190602001808311610b6a57829003601f168201915b50505050508152602001600182018054610ba090611ac2565b80601f0160208091040260200160405190810160405280929190818152602001828054610bcc90611ac2565b8015610c195780601f10610bee57610100808354040283529160200191610c19565b820191906000526020600020905b815481529060010190602001808311610bfc57829003601f168201915b5050505050815260200160028201548152602001600382015481526020016004820154815260200160058201548152505081526020019060010190610adb565b5050505081525050905060015481600001518051906020012014610c81576001915050610c87565b60009150505b90565b610c926110c3565b600360008473ffffffffffffffffffffffffffffffffffffffff1673ffffffffffffffffffffffffffffffffffffffff1681526020019081526020016000206002018281548110610d0c577f4e487b7100000000000000000000000000000000000000000000000000000000600052603260045260246000fd5b90600052602060002090600602016040518060c0016040529081600082018054610d3590611ac2565b80601f0160208091040260200160405190810160405280929190818152602001828054610d6190611ac2565b8015610dae5780601f10610d8357610100808354040283529160200191610dae565b820191906000526020600020905b815481529060010190602001808311610d9157829003601f168201915b50505050508152602001600182018054610dc790611ac2565b80601f0160208091040260200160405190810160405280929190818152602001828054610df390611ac2565b8015610e405780601f10610e1557610100808354040283529160200191610e40565b820191906000526020600020905b815481529060010190602001808311610e2357829003601f168201915b50505050508152602001600282015481526020016003820154815260200160048201548152602001600582015481525050905092915050565b60015481565b600154858051906020012014158015610ea15750600154848051906020012014155b8015610eae575060008310155b610eed576040517f08c379a0000000000000000000000000000000000000000000000000000000008152600401610ee4906117fe565b60405180910390fd5b60004390506000610f07848361102790919063ffffffff16565b90506000610f1e848361102790919063ffffffff16565b9050600360003373ffffffffffffffffffffffffffffffffffffffff1673ffffffffffffffffffffffffffffffffffffffff1681526020019081526020016000206002016040518060c001604052808a8152602001898152602001888152602001600081526020018481526020018381525090806001815401808255809150506001900390600052602060002090600602016000909190919091506000820151816000019080519060200190610fd592919061103d565b506020820151816001019080519060200190610ff292919061103d565b5060408201518160020155606082015181600301556080820151816004015560a0820151816005015550505050505050505050565b60008183611035919061195c565b905092915050565b82805461104990611ac2565b90600052602060002090601f01602090048101928261106b57600085556110b2565b82601f1061108457805160ff19168380011785556110b2565b828001600101855582156110b2579182015b828111156110b1578251825591602001919060010190611096565b5b5090506110bf91906110f9565b5090565b6040518060c001604052806060815260200160608152602001600081526020016000815260200160008152602001600081525090565b5b808211156111125760008160009055506001016110fa565b5090565b6000611129611124846118c5565b6118a0565b90508281526020810184848401111561114157600080fd5b61114c848285611a80565b509392505050565b60008135905061116381611cd9565b92915050565b60008151905061117881611cf0565b92915050565b600082601f83011261118f57600080fd5b813561119f848260208601611116565b91505092915050565b6000813590506111b781611d07565b92915050565b6000602082840312156111cf57600080fd5b60006111dd84828501611154565b91505092915050565b600080604083850312156111f957600080fd5b600061120785828601611154565b9250506020611218858286016111a8565b9150509250929050565b60008060006060848603121561123757600080fd5b600061124586828701611154565b9350506020611256868287016111a8565b9250506040611267868287016111a8565b9150509250925092565b60006020828403121561128357600080fd5b600061129184828501611169565b91505092915050565b600080604083850312156112ad57600080fd5b600083013567ffffffffffffffff8111156112c757600080fd5b6112d38582860161117e565b925050602083013567ffffffffffffffff8111156112f057600080fd5b6112fc8582860161117e565b9150509250929050565b600080600080600060a0868803121561131e57600080fd5b600086013567ffffffffffffffff81111561133857600080fd5b6113448882890161117e565b955050602086013567ffffffffffffffff81111561136157600080fd5b61136d8882890161117e565b945050604061137e888289016111a8565b935050606061138f888289016111a8565b92505060806113a0888289016111a8565b9150509295509295909350565b60006113b9838361157f565b905092915050565b6113ca816119e6565b82525050565b60006113db82611906565b6113e58185611929565b9350836020820285016113f7856118f6565b8060005b85811015611433578484038952815161141485826113ad565b945061141f8361191c565b925060208a019950506001810190506113fb565b50829750879550505050505092915050565b61144e816119f8565b82525050565b61145d81611a04565b82525050565b61146c81611a38565b82525050565b61147b81611a5c565b82525050565b600061148c82611911565b611496818561193a565b93506114a6818560208601611a8f565b6114af81611bb2565b840191505092915050565b60006114c582611911565b6114cf818561194b565b93506114df818560208601611a8f565b6114e881611bb2565b840191505092915050565b600061150060308361194b565b915061150b82611bc3565b604082019050919050565b600061152360298361194b565b915061152e82611c12565b604082019050919050565b600061154660248361194b565b915061155182611c61565b604082019050919050565b600061156960168361194b565b915061157482611cb0565b602082019050919050565b600060c083016000830151848203600086015261159c8282611481565b915050602083015184820360208601526115b68282611481565b91505060408301516115cb604086018261169f565b5060608301516115de606086018261169f565b5060808301516115f1608086018261169f565b5060a083015161160460a086018261169f565b508091505092915050565b600060c083016000830151848203600086015261162c8282611481565b915050602083015184820360208601526116468282611481565b915050604083015161165b604086018261169f565b50606083015161166e606086018261169f565b506080830151611681608086018261169f565b5060a083015161169460a086018261169f565b508091505092915050565b6116a881611a2e565b82525050565b6116b781611a2e565b82525050565b60006060820190506116d260008301866113c1565b6116df60208301856113c1565b6116ec60408301846116ae565b949350505050565b600060808201905061170960008301876113c1565b61171660208301866116ae565b61172360408301856113c1565b61173060608301846116ae565b95945050505050565b6000602082019050818103600083015261175381846113d0565b905092915050565b60006020820190506117706000830184611445565b92915050565b600060208201905061178b6000830184611454565b92915050565b60006020820190506117a66000830184611463565b92915050565b60006020820190506117c16000830184611472565b92915050565b600060408201905081810360008301526117e181856114ba565b905081810360208301526117f581846114ba565b90509392505050565b60006020820190508181036000830152611817816114f3565b9050919050565b6000602082019050818103600083015261183781611516565b9050919050565b6000602082019050818103600083015261185781611539565b9050919050565b600060208201905081810360008301526118778161155c565b9050919050565b60006020820190508181036000830152611898818461160f565b905092915050565b60006118aa6118bb565b90506118b68282611af4565b919050565b6000604051905090565b600067ffffffffffffffff8211156118e0576118df611b83565b5b6118e982611bb2565b9050602081019050919050565b6000819050602082019050919050565b600081519050919050565b600081519050919050565b6000602082019050919050565b600082825260208201905092915050565b600082825260208201905092915050565b600082825260208201905092915050565b600061196782611a2e565b915061197283611a2e565b9250827fffffffffffffffffffffffffffffffffffffffffffffffffffffffffffffffff038211156119a7576119a6611b25565b5b828201905092915050565b60006119bd82611a2e565b91506119c883611a2e565b9250828210156119db576119da611b25565b5b828203905092915050565b60006119f182611a0e565b9050919050565b60008115159050919050565b6000819050919050565b600073ffffffffffffffffffffffffffffffffffffffff82169050919050565b6000819050919050565b6000611a4382611a4a565b9050919050565b6000611a5582611a0e565b9050919050565b6000611a6782611a6e565b9050919050565b6000611a7982611a0e565b9050919050565b82818337600083830152505050565b60005b83811015611aad578082015181840152602081019050611a92565b83811115611abc576000848401525b50505050565b60006002820490506001821680611ada57607f821691505b60208210811415611aee57611aed611b54565b5b50919050565b611afd82611bb2565b810181811067ffffffffffffffff82111715611b1c57611b1b611b83565b5b80604052505050565b7f4e487b7100000000000000000000000000000000000000000000000000000000600052601160045260246000fd5b7f4e487b7100000000000000000000000000000000000000000000000000000000600052602260045260246000fd5b7f4e487b7100000000000000000000000000000000000000000000000000000000600052604160045260246000fd5b6000601f19601f8301169050919050565b7f504f444f3a20506c6561736520696e7075742067726f7570206e616d652c206460008201527f6573632c207461726765746d6f6e792e00000000000000000000000000000000602082015250565b7f504f444f3a2054686520646f6e6174696f6e20616d6f756e742063616e6e6f7460008201527f206265207a65726f2e0000000000000000000000000000000000000000000000602082015250565b7f504f444f3a20506c6561736520696e7075742067726f7570206e616d652c206460008201527f6573632e00000000000000000000000000000000000000000000000000000000602082015250565b7f504f444f3a204e6f7420666f756e642067726f75702e00000000000000000000600082015250565b611ce2816119e6565b8114611ced57600080fd5b50565b611cf9816119f8565b8114611d0457600080fd5b50565b611d1081611a2e565b8114611d1b57600080fd5b5056fea2646970667358221220592c6423004b33f49254f23b16bdded44be42ee303d1eabefb8239954c4387e964736f6c63430008040033",
  "immutableReferences": {},
  "source": "// SPDX-License-Identifier: MIT\n\nimport \"./openzeppelin/SafeMath.sol\";\nimport \"./openzeppelin/ERC20.sol\";\nimport \"./openzeppelin/IERC20.sol\";\n\npragma solidity ^0.8.0;\n\ncontract FundRaise {\n    using SafeMath for uint256;\n    IERC20 public podo;\n    bytes32 public empty = keccak256(bytes(\"\"));\n\n    //  \n    struct GroupInfo {\n        string name;\n        string desc;\n        ProjectInfo[] projects;\n    }\n\n    // \n    struct ProjectInfo {\n        string title;\n        string desc;\n        uint256 targetMoney;\n        uint256 currentMoney;\n        uint256 startBlock;\n        uint256 endBlock;\n    }\n    BallotInterface public ballot;\n\n    //   ->  \n    mapping(address => GroupInfo) public groupInfo;\n\n    constructor(IERC20 _podo, BallotInterface _ballot) {\n        //   \n        podo = _podo;\n        //   \n        ballot = _ballot;\n    }\n\n    //       .\n    modifier onlyGroupOwner() {\n        require(\n            keccak256(bytes(groupInfo[msg.sender].name)) != empty,\n            \"PODO: You don't have a group.\"\n        );\n        _;\n    }\n\n    /**\n         \n\n        **\n        _name, _desc  .\n     */\n    function createGroup(string memory _name, string memory _desc) public {\n        require(\n            keccak256(bytes(_name)) != empty &&\n                keccak256(bytes(_desc)) != empty,\n            \"PODO: Please input group name, desc.\"\n        );\n        //     \n        groupInfo[msg.sender].name = _name;\n        groupInfo[msg.sender].desc = _desc;\n        // TODO   \n    }\n\n    /**\n         \n            ,    .\n\n        **\n        _title, _desc   \n        _targetmoney 0 \n     */\n    function createProject(\n        string memory _title,\n        string memory _desc,\n        uint256 _targetMoney,\n        uint256 _startBlock,\n        uint256 _endBlock\n    ) public {\n        require(\n            keccak256(bytes(_title)) != empty &&\n                keccak256(bytes(_desc)) != empty &&\n                _targetMoney >= 0,\n            \"PODO: Please input group name, desc, targetmony.\"\n        );\n        //  \n        uint256 nowBlock = block.number;\n        //   .\n        uint256 start = nowBlock.add(_startBlock);\n        //   .\n        uint256 end = start.add(_endBlock);\n        //   \n        groupInfo[msg.sender].projects.push(\n            ProjectInfo({\n                title: _title,\n                desc: _desc,\n                targetMoney: _targetMoney,\n                currentMoney: 0,\n                startBlock: start,\n                endBlock: end\n            })\n        );\n        // TODO   \n    }\n\n    /**\n              \n\n            **\n             \n              0 \n         */\n\n    function donateToProject(\n        address _group,\n        uint256 _pid,\n        uint256 _amount\n    ) public {\n        //   \n        require(\n            groupInfo[_group].projects.length - 1 >= _pid,\n            \"PODO: Not found group.\"\n        );\n        //    \n        // require(\n        //     groupInfo[_group].projects[_pid].endBlock <= nowBlock,\n        //     \"PODO: It's not a fundraising period.\"\n        // );\n        //   0 \n        require(_amount > 0, \"PODO: The donation amount cannot be zero.\");\n        //     \n        podo.transferFrom(address(msg.sender), address(this), _amount);\n        //     currentMoney \n        groupInfo[_group].projects[_pid].currentMoney += _amount;\n        //   \n        ballot.mint(_group, _pid, address(msg.sender), _amount);\n        // TODO   \n    }\n\n    /**\n                 .\n         */\n    function viewGroupProjectsInfo(address _group)\n        public\n        view\n        returns (ProjectInfo[] memory)\n    {\n        ProjectInfo[] memory projects = groupInfo[_group].projects;\n        return projects;\n        // TODO   \n    }\n\n    /**\n             _pid     .\n         */\n    function viewGroupProjectInfo(address _group, uint256 _pid)\n        public\n        view\n        returns (ProjectInfo memory)\n    {\n        return groupInfo[_group].projects[_pid];\n        // TODO   \n    }\n\n    /**\n           \n     */\n    function hasGroup() public view returns (bool) {\n        GroupInfo memory group = groupInfo[msg.sender];\n        if (keccak256(bytes(group.name)) != empty) {\n            return true;\n        }\n        return false;\n    }\n}\n\ninterface BallotInterface {\n    function mint(\n        address _group,\n        uint256 _pid,\n        address _to,\n        uint256 _amount\n    ) external;\n}\n",
  "sourcePath": "/Users/minje/Desktop/recat/contracts/FundRaise.sol",
  "compiler": {
    "name": "solc",
    "version": "0.8.4+commit.c7e474f2.Emscripten.clang"
  },
  "schemaVersion": "3.4.3",
  "updatedAt": "2021-09-30T12:24:14.439Z",
  "devdoc": {
    "kind": "dev",
    "methods": {},
    "version": 1
  },
  "userdoc": {
    "kind": "user",
    "methods": {
      "createGroup(string,string)": {
        "notice": " ** _name, _desc  ."
      },
      "createProject(string,string,uint256,uint256,uint256)": {
        "notice": "      ,    .** _title, _desc    _targetmoney 0 "
      },
      "donateToProject(address,uint256,uint256)": {
        "notice": "  **     0 "
      },
      "hasGroup()": {
        "notice": "   "
      },
      "viewGroupProjectInfo(address,uint256)": {
        "notice": " _pid     ."
      },
      "viewGroupProjectsInfo(address)": {
        "notice": "     ."
      }
    },
    "version": 1
  }
}