{
  "contractName": "FundRaise",
  "abi": [
    {
      "inputs": [
        {
          "internalType": "address",
          "name": "_podo",
          "type": "address"
        }
      ],
      "stateMutability": "nonpayable",
      "type": "constructor"
    },
    {
      "inputs": [],
      "name": "mint",
      "outputs": [
        {
          "internalType": "uint256",
          "name": "",
          "type": "uint256"
        }
      ],
      "stateMutability": "view",
      "type": "function"
    },
    {
      "inputs": [],
      "name": "podo",
      "outputs": [
        {
          "internalType": "contract podoInterface",
          "name": "",
          "type": "address"
        }
      ],
      "stateMutability": "view",
      "type": "function"
    },
    {
      "inputs": [
        {
          "internalType": "uint256",
          "name": "",
          "type": "uint256"
        }
      ],
      "name": "projects",
      "outputs": [
        {
          "internalType": "string",
          "name": "title",
          "type": "string"
        },
        {
          "internalType": "string",
          "name": "desc",
          "type": "string"
        },
        {
          "internalType": "uint256",
          "name": "tagetmoney",
          "type": "uint256"
        },
        {
          "internalType": "uint256",
          "name": "currentmoney",
          "type": "uint256"
        },
        {
          "internalType": "uint256",
          "name": "state",
          "type": "uint256"
        }
      ],
      "stateMutability": "view",
      "type": "function"
    },
    {
      "stateMutability": "payable",
      "type": "receive"
    },
    {
      "inputs": [
        {
          "internalType": "address",
          "name": "_to",
          "type": "address"
        }
      ],
      "name": "total",
      "outputs": [
        {
          "internalType": "uint256",
          "name": "",
          "type": "uint256"
        }
      ],
      "stateMutability": "view",
      "type": "function"
    },
    {
      "inputs": [
        {
          "internalType": "address",
          "name": "_to",
          "type": "address"
        },
        {
          "internalType": "uint256",
          "name": "_amount",
          "type": "uint256"
        }
      ],
      "name": "swapEtherToPodoToken",
      "outputs": [],
      "stateMutability": "nonpayable",
      "type": "function"
    },
    {
      "inputs": [],
      "name": "createProject",
      "outputs": [],
      "stateMutability": "nonpayable",
      "type": "function"
    },
    {
      "inputs": [],
      "name": "donateToCampaign",
      "outputs": [],
      "stateMutability": "nonpayable",
      "type": "function"
    }
  ],
  "bytecode": "0x608060405234801561001057600080fd5b50604051610a87380380610a878339818101604052810190610032919061008e565b80600160006101000a81548173ffffffffffffffffffffffffffffffffffffffff021916908373ffffffffffffffffffffffffffffffffffffffff16021790555050610100565b600081519050610088816100e9565b92915050565b6000602082840312156100a057600080fd5b60006100ae84828501610079565b91505092915050565b60006100c2826100c9565b9050919050565b600073ffffffffffffffffffffffffffffffffffffffff82169050919050565b6100f2816100b7565b81146100fd57600080fd5b50565b6109788061010f6000396000f3fe6080604052600436106100745760003560e01c806369fd3e1a1161004e57806369fd3e1a146101af578063ba99a881146101da578063c7b96dba14610203578063d2514e841461021a57610127565b8063107046bd1461012c5780631249c58b1461016d5780632ef6da001461019857610127565b366101275734600360003373ffffffffffffffffffffffffffffffffffffffff1673ffffffffffffffffffffffffffffffffffffffff16815260200190815260200160002060008282546100c89190610756565b9250508190555034600460003373ffffffffffffffffffffffffffffffffffffffff1673ffffffffffffffffffffffffffffffffffffffff168152602001908152602001600020600082825461011e9190610756565b92505081905550005b600080fd5b34801561013857600080fd5b50610153600480360381019061014e91906105eb565b610257565b6040516101649594939291906106be565b60405180910390f35b34801561017957600080fd5b506101826103ad565b60405161018f919061071f565b60405180910390f35b3480156101a457600080fd5b506101ad6103b3565b005b3480156101bb57600080fd5b506101c46103b5565b6040516101d191906106a3565b60405180910390f35b3480156101e657600080fd5b5061020160048036038101906101fc91906105af565b6103db565b005b34801561020f57600080fd5b50610218610511565b005b34801561022657600080fd5b50610241600480360381019061023c9190610586565b610513565b60405161024e919061071f565b60405180910390f35b6000818154811061026757600080fd5b906000526020600020906006020160009150905080600001805461028a90610873565b80601f01602080910402602001604051908101604052809291908181526020018280546102b690610873565b80156103035780601f106102d857610100808354040283529160200191610303565b820191906000526020600020905b8154815290600101906020018083116102e657829003601f168201915b50505050509080600101805461031890610873565b80601f016020809104026020016040519081016040528092919081815260200182805461034490610873565b80156103915780601f1061036657610100808354040283529160200191610391565b820191906000526020600020905b81548152906001019060200180831161037457829003601f168201915b5050505050908060020154908060030154908060040154905085565b60025481565b565b600160009054906101000a900473ffffffffffffffffffffffffffffffffffffffff1681565b6000600460008473ffffffffffffffffffffffffffffffffffffffff1673ffffffffffffffffffffffffffffffffffffffff16815260200190815260200160002054101561042857600080fd5b80600460008473ffffffffffffffffffffffffffffffffffffffff1673ffffffffffffffffffffffffffffffffffffffff168152602001908152602001600020600082825461047791906107ac565b92505081905550600160009054906101000a900473ffffffffffffffffffffffffffffffffffffffff1673ffffffffffffffffffffffffffffffffffffffff166340c10f1983836040518363ffffffff1660e01b81526004016104db92919061067a565b600060405180830381600087803b1580156104f557600080fd5b505af1158015610509573d6000803e3d6000fd5b505050505050565b565b6000600360008373ffffffffffffffffffffffffffffffffffffffff1673ffffffffffffffffffffffffffffffffffffffff168152602001908152602001600020549050919050565b60008135905061056b81610914565b92915050565b6000813590506105808161092b565b92915050565b60006020828403121561059857600080fd5b60006105a68482850161055c565b91505092915050565b600080604083850312156105c257600080fd5b60006105d08582860161055c565b92505060206105e185828601610571565b9150509250929050565b6000602082840312156105fd57600080fd5b600061060b84828501610571565b91505092915050565b61061d816107e0565b82525050565b61062c8161081c565b82525050565b600061063d8261073a565b6106478185610745565b9350610657818560208601610840565b61066081610903565b840191505092915050565b61067481610812565b82525050565b600060408201905061068f6000830185610614565b61069c602083018461066b565b9392505050565b60006020820190506106b86000830184610623565b92915050565b600060a08201905081810360008301526106d88188610632565b905081810360208301526106ec8187610632565b90506106fb604083018661066b565b610708606083018561066b565b610715608083018461066b565b9695505050505050565b6000602082019050610734600083018461066b565b92915050565b600081519050919050565b600082825260208201905092915050565b600061076182610812565b915061076c83610812565b9250827fffffffffffffffffffffffffffffffffffffffffffffffffffffffffffffffff038211156107a1576107a06108a5565b5b828201905092915050565b60006107b782610812565b91506107c283610812565b9250828210156107d5576107d46108a5565b5b828203905092915050565b60006107eb826107f2565b9050919050565b600073ffffffffffffffffffffffffffffffffffffffff82169050919050565b6000819050919050565b60006108278261082e565b9050919050565b6000610839826107f2565b9050919050565b60005b8381101561085e578082015181840152602081019050610843565b8381111561086d576000848401525b50505050565b6000600282049050600182168061088b57607f821691505b6020821081141561089f5761089e6108d4565b5b50919050565b7f4e487b7100000000000000000000000000000000000000000000000000000000600052601160045260246000fd5b7f4e487b7100000000000000000000000000000000000000000000000000000000600052602260045260246000fd5b6000601f19601f8301169050919050565b61091d816107e0565b811461092857600080fd5b50565b61093481610812565b811461093f57600080fd5b5056fea264697066735822122087e168cdcb65c278b827827e373c16b03d2d450ec6104311087e33a06340e23d64736f6c63430008040033",
  "immutableReferences": {},
  "source": "// SPDX-License-Identifier: MIT\n\npragma solidity ^0.8.0;\nimport \"./openzeppelin/IERC20.sol\";\nimport \"./openzeppelin/ERC20.sol\";\n\ncontract Podo is ERC20(\"PodoToken\", \"PODO\") {\n    // address public owner = 0xB96882fa594888Ca8086000cAa5E6f6fa86aD7F9;\n\n    // modifier onlyOwner(address _to) {\n    //     require(msg.sender == owner, \"ERROR: your are not owner.\");\n    //     _;\n    // }\n\n    // function setOwner(address _to) public onlyOwner(_to) {\n    //     owner = _to;\n    // }\n\n    function mint(address _to, uint256 _amount) external {\n        _mint(_to, _amount);\n    }\n}\n\ncontract FundRaise {\n    struct Project {\n        string title;\n        string desc;\n        uint256 tagetmoney;\n        uint256 currentmoney;\n        uint256 state;\n        People[] people;\n    }\n    struct People {\n        string name;\n        string image;\n        string desc;\n        uint256 amount;\n    }\n    Project[] public projects;\n    podoInterface public podo;\n    uint256 public mint;\n\n    mapping(address => uint256) totalBalance;\n    mapping(address => uint256) payableBalance;\n\n    // event Received (address _to, uint _amount);\n    receive() external payable {\n        totalBalance[msg.sender] += msg.value;\n        payableBalance[msg.sender] += msg.value;\n        // emit Received(msg.sender, msg.value);\n    }\n\n    constructor(address _podo) {\n        podo = podoInterface(_podo);\n    }\n\n    function total(address _to) public view returns (uint256) {\n        return totalBalance[_to];\n    }\n\n    // PodoToken .\n    function swapEtherToPodoToken(address _to, uint256 _amount) public {\n        require(payableBalance[_to] >= 0);\n        payableBalance[_to] -= _amount;\n        podo.mint(_to, _amount);\n    }\n\n    function createProject() public {}\n\n    function donateToCampaign() public {}\n}\n\ninterface podoInterface {\n    function mint(address _to, uint256 _amount) external;\n}\n",
  "sourcePath": "/Users/minje/Desktop/recat/contracts/FundRaise.sol",
  "compiler": {
    "name": "solc",
    "version": "0.8.4+commit.c7e474f2.Emscripten.clang"
  },
  "schemaVersion": "3.4.3",
  "updatedAt": "2021-09-16T12:06:48.392Z",
  "devdoc": {
    "kind": "dev",
    "methods": {},
    "version": 1
  },
  "userdoc": {
    "kind": "user",
    "methods": {},
    "version": 1
  }
}