{
  "contractName": "FundRaise",
  "abi": [
    {
      "inputs": [
        {
          "internalType": "contract IERC20",
          "name": "_podo",
          "type": "address"
        },
        {
          "internalType": "address",
          "name": "_ballot",
          "type": "address"
        }
      ],
      "stateMutability": "nonpayable",
      "type": "constructor"
    },
    {
      "inputs": [],
      "name": "ballot",
      "outputs": [
        {
          "internalType": "contract BallotInterface",
          "name": "",
          "type": "address"
        }
      ],
      "stateMutability": "view",
      "type": "function"
    },
    {
      "inputs": [
        {
          "internalType": "address",
          "name": "",
          "type": "address"
        }
      ],
      "name": "groupInfo",
      "outputs": [
        {
          "internalType": "string",
          "name": "name",
          "type": "string"
        },
        {
          "internalType": "string",
          "name": "desc",
          "type": "string"
        }
      ],
      "stateMutability": "view",
      "type": "function"
    },
    {
      "inputs": [],
      "name": "podo",
      "outputs": [
        {
          "internalType": "contract IERC20",
          "name": "",
          "type": "address"
        }
      ],
      "stateMutability": "view",
      "type": "function"
    },
    {
      "inputs": [
        {
          "internalType": "string",
          "name": "_name",
          "type": "string"
        },
        {
          "internalType": "string",
          "name": "_desc",
          "type": "string"
        }
      ],
      "name": "createGroup",
      "outputs": [],
      "stateMutability": "nonpayable",
      "type": "function"
    },
    {
      "inputs": [
        {
          "internalType": "string",
          "name": "_title",
          "type": "string"
        },
        {
          "internalType": "string",
          "name": "_desc",
          "type": "string"
        },
        {
          "internalType": "uint256",
          "name": "_targetMoney",
          "type": "uint256"
        },
        {
          "internalType": "uint256",
          "name": "_startBlock",
          "type": "uint256"
        },
        {
          "internalType": "uint256",
          "name": "_endBlock",
          "type": "uint256"
        }
      ],
      "name": "createProject",
      "outputs": [],
      "stateMutability": "nonpayable",
      "type": "function"
    },
    {
      "inputs": [
        {
          "internalType": "address",
          "name": "_group",
          "type": "address"
        },
        {
          "internalType": "uint256",
          "name": "_pid",
          "type": "uint256"
        },
        {
          "internalType": "uint256",
          "name": "_amount",
          "type": "uint256"
        }
      ],
      "name": "donateToProject",
      "outputs": [],
      "stateMutability": "nonpayable",
      "type": "function"
    },
    {
      "inputs": [
        {
          "internalType": "address",
          "name": "_group",
          "type": "address"
        }
      ],
      "name": "viewGroupProjectsInfo",
      "outputs": [
        {
          "components": [
            {
              "internalType": "string",
              "name": "title",
              "type": "string"
            },
            {
              "internalType": "string",
              "name": "desc",
              "type": "string"
            },
            {
              "internalType": "uint256",
              "name": "targetMoney",
              "type": "uint256"
            },
            {
              "internalType": "uint256",
              "name": "currentMoney",
              "type": "uint256"
            },
            {
              "internalType": "uint256",
              "name": "startBlock",
              "type": "uint256"
            },
            {
              "internalType": "uint256",
              "name": "endBlock",
              "type": "uint256"
            }
          ],
          "internalType": "struct FundRaise.ProjectInfo[]",
          "name": "",
          "type": "tuple[]"
        }
      ],
      "stateMutability": "view",
      "type": "function"
    },
    {
      "inputs": [
        {
          "internalType": "address",
          "name": "_group",
          "type": "address"
        },
        {
          "internalType": "uint256",
          "name": "_pid",
          "type": "uint256"
        }
      ],
      "name": "viewGroupProjectInfo",
      "outputs": [
        {
          "components": [
            {
              "internalType": "string",
              "name": "title",
              "type": "string"
            },
            {
              "internalType": "string",
              "name": "desc",
              "type": "string"
            },
            {
              "internalType": "uint256",
              "name": "targetMoney",
              "type": "uint256"
            },
            {
              "internalType": "uint256",
              "name": "currentMoney",
              "type": "uint256"
            },
            {
              "internalType": "uint256",
              "name": "startBlock",
              "type": "uint256"
            },
            {
              "internalType": "uint256",
              "name": "endBlock",
              "type": "uint256"
            }
          ],
          "internalType": "struct FundRaise.ProjectInfo",
          "name": "",
          "type": "tuple"
        }
      ],
      "stateMutability": "view",
      "type": "function"
    }
  ],
  "bytecode": "0x60806040523480156200001157600080fd5b5060405162001ab038038062001ab08339818101604052810190620000379190620000ee565b816000806101000a81548173ffffffffffffffffffffffffffffffffffffffff021916908373ffffffffffffffffffffffffffffffffffffffff16021790555080600160006101000a81548173ffffffffffffffffffffffffffffffffffffffff021916908373ffffffffffffffffffffffffffffffffffffffff1602179055505050620001ab565b600081519050620000d18162000177565b92915050565b600081519050620000e88162000191565b92915050565b600080604083850312156200010257600080fd5b60006200011285828601620000d7565b92505060206200012585828601620000c0565b9150509250929050565b60006200013c8262000157565b9050919050565b600062000150826200012f565b9050919050565b600073ffffffffffffffffffffffffffffffffffffffff82169050919050565b62000182816200012f565b81146200018e57600080fd5b50565b6200019c8162000143565b8114620001a857600080fd5b50565b6118f580620001bb6000396000f3fe608060405234801561001057600080fd5b50600436106100885760003560e01c8063ac3910a21161005b578063ac3910a214610128578063b8f2088014610146578063ee0f2f0714610162578063f81bf6011461019257610088565b80631e4a97dd1461008d57806369fd3e1a146100a9578063938a111b146100c7578063a01a532f146100f7575b600080fd5b6100a760048036038101906100a29190610e99565b6101ae565b005b6100b16102e0565b6040516100be9190611357565b60405180910390f35b6100e160048036038101906100dc9190610dbc565b610304565b6040516100ee919061131a565b60405180910390f35b610111600480360381019061010c9190610dbc565b6104f7565b60405161011f929190611372565b60405180910390f35b61013061062b565b60405161013d919061133c565b60405180910390f35b610160600480360381019061015b9190610e21565b610651565b005b61017c60048036038101906101779190610de5565b610870565b6040516101899190611429565b60405180910390f35b6101ac60048036038101906101a79190610f05565b610a5f565b005b600060405180602001604052806000815250905080805190602001208380519060200120141580156101ee57508080519060200120828051906020012014155b61022d576040517f08c379a0000000000000000000000000000000000000000000000000000000008152600401610224906113e9565b60405180910390fd5b82600260003373ffffffffffffffffffffffffffffffffffffffff1673ffffffffffffffffffffffffffffffffffffffff1681526020019081526020016000206000019080519060200190610283929190610c3c565b5081600260003373ffffffffffffffffffffffffffffffffffffffff1673ffffffffffffffffffffffffffffffffffffffff16815260200190815260200160002060010190805190602001906102da929190610c3c565b50505050565b60008054906101000a900473ffffffffffffffffffffffffffffffffffffffff1681565b60606000600260008473ffffffffffffffffffffffffffffffffffffffff1673ffffffffffffffffffffffffffffffffffffffff168152602001908152602001600020600201805480602002602001604051908101604052809291908181526020016000905b828210156104e857838290600052602060002090600602016040518060c001604052908160008201805461039d90611663565b80601f01602080910402602001604051908101604052809291908181526020018280546103c990611663565b80156104165780601f106103eb57610100808354040283529160200191610416565b820191906000526020600020905b8154815290600101906020018083116103f957829003601f168201915b5050505050815260200160018201805461042f90611663565b80601f016020809104026020016040519081016040528092919081815260200182805461045b90611663565b80156104a85780601f1061047d576101008083540402835291602001916104a8565b820191906000526020600020905b81548152906001019060200180831161048b57829003601f168201915b505050505081526020016002820154815260200160038201548152602001600482015481526020016005820154815250508152602001906001019061036a565b50505050905080915050919050565b600260205280600052604060002060009150905080600001805461051a90611663565b80601f016020809104026020016040519081016040528092919081815260200182805461054690611663565b80156105935780601f1061056857610100808354040283529160200191610593565b820191906000526020600020905b81548152906001019060200180831161057657829003601f168201915b5050505050908060010180546105a890611663565b80601f01602080910402602001604051908101604052809291908181526020018280546105d490611663565b80156106215780601f106105f657610100808354040283529160200191610621565b820191906000526020600020905b81548152906001019060200180831161060457829003601f168201915b5050505050905082565b600160009054906101000a900473ffffffffffffffffffffffffffffffffffffffff1681565b816001600260008673ffffffffffffffffffffffffffffffffffffffff1673ffffffffffffffffffffffffffffffffffffffff168152602001908152602001600020600201805490506106a4919061155d565b10156106e5576040517f08c379a00000000000000000000000000000000000000000000000000000000081526004016106dc90611409565b60405180910390fd5b60008111610728576040517f08c379a000000000000000000000000000000000000000000000000000000000815260040161071f906113c9565b60405180910390fd5b60008054906101000a900473ffffffffffffffffffffffffffffffffffffffff1673ffffffffffffffffffffffffffffffffffffffff166323b872dd3330846040518463ffffffff1660e01b81526004016107859392919061129e565b602060405180830381600087803b15801561079f57600080fd5b505af11580156107b3573d6000803e3d6000fd5b505050506040513d601f19601f820116820180604052508101906107d79190610e70565b50600160009054906101000a900473ffffffffffffffffffffffffffffffffffffffff1673ffffffffffffffffffffffffffffffffffffffff16633c173a4f848433856040518563ffffffff1660e01b815260040161083994939291906112d5565b600060405180830381600087803b15801561085357600080fd5b505af1158015610867573d6000803e3d6000fd5b50505050505050565b610878610cc2565b600260008473ffffffffffffffffffffffffffffffffffffffff1673ffffffffffffffffffffffffffffffffffffffff16815260200190815260200160002060020182815481106108f2577f4e487b7100000000000000000000000000000000000000000000000000000000600052603260045260246000fd5b90600052602060002090600602016040518060c001604052908160008201805461091b90611663565b80601f016020809104026020016040519081016040528092919081815260200182805461094790611663565b80156109945780601f1061096957610100808354040283529160200191610994565b820191906000526020600020905b81548152906001019060200180831161097757829003601f168201915b505050505081526020016001820180546109ad90611663565b80601f01602080910402602001604051908101604052809291908181526020018280546109d990611663565b8015610a265780601f106109fb57610100808354040283529160200191610a26565b820191906000526020600020905b815481529060010190602001808311610a0957829003601f168201915b50505050508152602001600282015481526020016003820154815260200160048201548152602001600582015481525050905092915050565b60006040518060200160405280600081525090508080519060200120868051906020012014158015610a9f57508080519060200120858051906020012014155b8015610aac575060008410155b610aeb576040517f08c379a0000000000000000000000000000000000000000000000000000000008152600401610ae2906113a9565b60405180910390fd5b60004390506000610b058583610c2690919063ffffffff16565b90506000610b1c8583610c2690919063ffffffff16565b9050600260003373ffffffffffffffffffffffffffffffffffffffff1673ffffffffffffffffffffffffffffffffffffffff1681526020019081526020016000206002016040518060c001604052808b81526020018a8152602001898152602001600081526020018481526020018381525090806001815401808255809150506001900390600052602060002090600602016000909190919091506000820151816000019080519060200190610bd3929190610c3c565b506020820151816001019080519060200190610bf0929190610c3c565b5060408201518160020155606082015181600301556080820151816004015560a082015181600501555050505050505050505050565b60008183610c349190611507565b905092915050565b828054610c4890611663565b90600052602060002090601f016020900481019282610c6a5760008555610cb1565b82601f10610c8357805160ff1916838001178555610cb1565b82800160010185558215610cb1579182015b82811115610cb0578251825591602001919060010190610c95565b5b509050610cbe9190610cf8565b5090565b6040518060c001604052806060815260200160608152602001600081526020016000815260200160008152602001600081525090565b5b80821115610d11576000816000905550600101610cf9565b5090565b6000610d28610d2384611470565b61144b565b905082815260208101848484011115610d4057600080fd5b610d4b848285611621565b509392505050565b600081359050610d628161187a565b92915050565b600081519050610d7781611891565b92915050565b600082601f830112610d8e57600080fd5b8135610d9e848260208601610d15565b91505092915050565b600081359050610db6816118a8565b92915050565b600060208284031215610dce57600080fd5b6000610ddc84828501610d53565b91505092915050565b60008060408385031215610df857600080fd5b6000610e0685828601610d53565b9250506020610e1785828601610da7565b9150509250929050565b600080600060608486031215610e3657600080fd5b6000610e4486828701610d53565b9350506020610e5586828701610da7565b9250506040610e6686828701610da7565b9150509250925092565b600060208284031215610e8257600080fd5b6000610e9084828501610d68565b91505092915050565b60008060408385031215610eac57600080fd5b600083013567ffffffffffffffff811115610ec657600080fd5b610ed285828601610d7d565b925050602083013567ffffffffffffffff811115610eef57600080fd5b610efb85828601610d7d565b9150509250929050565b600080600080600060a08688031215610f1d57600080fd5b600086013567ffffffffffffffff811115610f3757600080fd5b610f4388828901610d7d565b955050602086013567ffffffffffffffff811115610f6057600080fd5b610f6c88828901610d7d565b9450506040610f7d88828901610da7565b9350506060610f8e88828901610da7565b9250506080610f9f88828901610da7565b9150509295509295909350565b6000610fb88383611160565b905092915050565b610fc981611591565b82525050565b6000610fda826114b1565b610fe481856114d4565b935083602082028501610ff6856114a1565b8060005b8581101561103257848403895281516110138582610fac565b945061101e836114c7565b925060208a01995050600181019050610ffa565b50829750879550505050505092915050565b61104d816115d9565b82525050565b61105c816115fd565b82525050565b600061106d826114bc565b61107781856114e5565b9350611087818560208601611630565b61109081611753565b840191505092915050565b60006110a6826114bc565b6110b081856114f6565b93506110c0818560208601611630565b6110c981611753565b840191505092915050565b60006110e16030836114f6565b91506110ec82611764565b604082019050919050565b60006111046029836114f6565b915061110f826117b3565b604082019050919050565b60006111276024836114f6565b915061113282611802565b604082019050919050565b600061114a6016836114f6565b915061115582611851565b602082019050919050565b600060c083016000830151848203600086015261117d8282611062565b915050602083015184820360208601526111978282611062565b91505060408301516111ac6040860182611280565b5060608301516111bf6060860182611280565b5060808301516111d26080860182611280565b5060a08301516111e560a0860182611280565b508091505092915050565b600060c083016000830151848203600086015261120d8282611062565b915050602083015184820360208601526112278282611062565b915050604083015161123c6040860182611280565b50606083015161124f6060860182611280565b5060808301516112626080860182611280565b5060a083015161127560a0860182611280565b508091505092915050565b611289816115cf565b82525050565b611298816115cf565b82525050565b60006060820190506112b36000830186610fc0565b6112c06020830185610fc0565b6112cd604083018461128f565b949350505050565b60006080820190506112ea6000830187610fc0565b6112f7602083018661128f565b6113046040830185610fc0565b611311606083018461128f565b95945050505050565b600060208201905081810360008301526113348184610fcf565b905092915050565b60006020820190506113516000830184611044565b92915050565b600060208201905061136c6000830184611053565b92915050565b6000604082019050818103600083015261138c818561109b565b905081810360208301526113a0818461109b565b90509392505050565b600060208201905081810360008301526113c2816110d4565b9050919050565b600060208201905081810360008301526113e2816110f7565b9050919050565b600060208201905081810360008301526114028161111a565b9050919050565b600060208201905081810360008301526114228161113d565b9050919050565b6000602082019050818103600083015261144381846111f0565b905092915050565b6000611455611466565b90506114618282611695565b919050565b6000604051905090565b600067ffffffffffffffff82111561148b5761148a611724565b5b61149482611753565b9050602081019050919050565b6000819050602082019050919050565b600081519050919050565b600081519050919050565b6000602082019050919050565b600082825260208201905092915050565b600082825260208201905092915050565b600082825260208201905092915050565b6000611512826115cf565b915061151d836115cf565b9250827fffffffffffffffffffffffffffffffffffffffffffffffffffffffffffffffff03821115611552576115516116c6565b5b828201905092915050565b6000611568826115cf565b9150611573836115cf565b925082821015611586576115856116c6565b5b828203905092915050565b600061159c826115af565b9050919050565b60008115159050919050565b600073ffffffffffffffffffffffffffffffffffffffff82169050919050565b6000819050919050565b60006115e4826115eb565b9050919050565b60006115f6826115af565b9050919050565b60006116088261160f565b9050919050565b600061161a826115af565b9050919050565b82818337600083830152505050565b60005b8381101561164e578082015181840152602081019050611633565b8381111561165d576000848401525b50505050565b6000600282049050600182168061167b57607f821691505b6020821081141561168f5761168e6116f5565b5b50919050565b61169e82611753565b810181811067ffffffffffffffff821117156116bd576116bc611724565b5b80604052505050565b7f4e487b7100000000000000000000000000000000000000000000000000000000600052601160045260246000fd5b7f4e487b7100000000000000000000000000000000000000000000000000000000600052602260045260246000fd5b7f4e487b7100000000000000000000000000000000000000000000000000000000600052604160045260246000fd5b6000601f19601f8301169050919050565b7f504f444f3a20506c6561736520696e7075742067726f7570206e616d652c206460008201527f6573632c207461726765746d6f6e792e00000000000000000000000000000000602082015250565b7f504f444f3a2054686520646f6e6174696f6e20616d6f756e742063616e6e6f7460008201527f206265207a65726f2e0000000000000000000000000000000000000000000000602082015250565b7f504f444f3a20506c6561736520696e7075742067726f7570206e616d652c206460008201527f6573632e00000000000000000000000000000000000000000000000000000000602082015250565b7f504f444f3a204e6f7420666f756e642067726f75702e00000000000000000000600082015250565b61188381611591565b811461188e57600080fd5b50565b61189a816115a3565b81146118a557600080fd5b50565b6118b1816115cf565b81146118bc57600080fd5b5056fea264697066735822122046285256a98db1494444520070e21c3b89e0647bfbf3609386d069b241a3fbd264736f6c63430008040033",
  "immutableReferences": {},
  "source": "// SPDX-License-Identifier: MIT\n\nimport \"./openzeppelin/SafeMath.sol\";\nimport \"./openzeppelin/ERC20.sol\";\nimport \"./openzeppelin/IERC20.sol\";\n\npragma solidity ^0.8.0;\n\ncontract FundRaise {\n    using SafeMath for uint256;\n    IERC20 public podo;\n\n    //  \n    struct GroupInfo {\n        string name;\n        string desc;\n        ProjectInfo[] projects;\n    }\n\n    // \n    struct ProjectInfo {\n        string title;\n        string desc;\n        uint256 targetMoney;\n        uint256 currentMoney;\n        uint256 startBlock;\n        uint256 endBlock;\n    }\n    BallotInterface public ballot;\n\n    //   ->  \n    mapping(address => GroupInfo) public groupInfo;\n\n    constructor(IERC20 _podo, address _ballot) {\n        //   \n        podo = _podo;\n        //   \n        ballot = BallotInterface(_ballot);\n    }\n\n    //       .\n    modifier onlyGroupOwner() {\n        string memory empty = \"\";\n        require(\n            keccak256(bytes(groupInfo[msg.sender].name)) !=\n                keccak256(bytes(empty)),\n            \"PODO: You don't have a group.\"\n        );\n        _;\n    }\n\n    /**\n         \n\n        **\n        _name, _desc  .\n     */\n    function createGroup(string memory _name, string memory _desc) public {\n        string memory empty = \"\";\n        require(\n            keccak256(bytes(_name)) != keccak256(bytes(empty)) &&\n                keccak256(bytes(_desc)) != keccak256(bytes(empty)),\n            \"PODO: Please input group name, desc.\"\n        );\n        //     \n        groupInfo[msg.sender].name = _name;\n        groupInfo[msg.sender].desc = _desc;\n        // TODO   \n    }\n\n    /**\n         \n            ,    .\n\n        **\n        _title, _desc   \n        _targetmoney 0 \n     */\n    function createProject(\n        string memory _title,\n        string memory _desc,\n        uint256 _targetMoney,\n        uint256 _startBlock,\n        uint256 _endBlock\n    ) public {\n        string memory empty = \"\";\n        require(\n            keccak256(bytes(_title)) != keccak256(bytes(empty)) &&\n                keccak256(bytes(_desc)) != keccak256(bytes(empty)) &&\n                _targetMoney >= 0,\n            \"PODO: Please input group name, desc, targetmony.\"\n        );\n        //  \n        uint256 nowBlock = block.number;\n        //   .\n        uint256 start = nowBlock.add(_startBlock);\n        //   .\n        uint256 end = start.add(_endBlock);\n        //   \n        groupInfo[msg.sender].projects.push(\n            ProjectInfo({\n                title: _title,\n                desc: _desc,\n                targetMoney: _targetMoney,\n                currentMoney: 0,\n                startBlock: start,\n                endBlock: end\n            })\n        );\n        // TODO   \n    }\n\n    /**\n          \n\n        **\n         \n          0 \n     */\n\n    function donateToProject(\n        address _group,\n        uint256 _pid,\n        uint256 _amount\n    ) public {\n        //   \n        require(\n            groupInfo[_group].projects.length - 1 >= _pid,\n            \"PODO: Not found group.\"\n        );\n        //    \n        // require(\n        //     groupInfo[_group].projects[_pid].endBlock <= nowBlock,\n        //     \"PODO: It's not a fundraising period.\"\n        // );\n        //   0 \n        require(_amount > 0, \"PODO: The donation amount cannot be zero.\");\n        //     \n        podo.transferFrom(address(msg.sender), address(this), _amount);\n        //   \n        ballot.mint(_group, _pid, address(msg.sender), _amount);\n        // TODO   \n    }\n\n    /**\n             .\n     */\n    function viewGroupProjectsInfo(address _group)\n        public\n        view\n        returns (ProjectInfo[] memory)\n    {\n        ProjectInfo[] memory projects = groupInfo[_group].projects;\n        return projects;\n        // TODO   \n    }\n\n    /**\n         _pid     .\n     */\n    function viewGroupProjectInfo(address _group, uint256 _pid)\n        public\n        view\n        returns (ProjectInfo memory)\n    {\n        return groupInfo[_group].projects[_pid];\n        // TODO   \n    }\n}\n\ninterface BallotInterface {\n    function mint(\n        address _group,\n        uint256 _pid,\n        address _to,\n        uint256 _amount\n    ) external;\n}\n",
  "sourcePath": "/Users/minje/Desktop/recat/contracts/FundRaise.sol",
  "compiler": {
    "name": "solc",
    "version": "0.8.4+commit.c7e474f2.Emscripten.clang"
  },
  "schemaVersion": "3.4.3",
  "updatedAt": "2021-09-23T09:50:09.501Z",
  "devdoc": {
    "kind": "dev",
    "methods": {},
    "version": 1
  },
  "userdoc": {
    "kind": "user",
    "methods": {
      "createGroup(string,string)": {
        "notice": " ** _name, _desc  ."
      },
      "createProject(string,string,uint256,uint256,uint256)": {
        "notice": "      ,    .** _title, _desc    _targetmoney 0 "
      },
      "donateToProject(address,uint256,uint256)": {
        "notice": "  **     0 "
      },
      "viewGroupProjectInfo(address,uint256)": {
        "notice": " _pid     ."
      },
      "viewGroupProjectsInfo(address)": {
        "notice": "     ."
      }
    },
    "version": 1
  }
}