{
  "contractName": "Governor",
  "abi": [
    {
      "inputs": [
        {
          "internalType": "contract IERC20",
          "name": "_podo",
          "type": "address"
        },
        {
          "internalType": "address",
          "name": "_ballot",
          "type": "address"
        },
        {
          "internalType": "address",
          "name": "_fundRaise",
          "type": "address"
        },
        {
          "internalType": "address",
          "name": "_timelock",
          "type": "address"
        }
      ],
      "stateMutability": "nonpayable",
      "type": "constructor"
    },
    {
      "inputs": [],
      "name": "ballot",
      "outputs": [
        {
          "internalType": "contract Ballot2Interface",
          "name": "",
          "type": "address"
        }
      ],
      "stateMutability": "view",
      "type": "function"
    },
    {
      "inputs": [],
      "name": "empty",
      "outputs": [
        {
          "internalType": "bytes32",
          "name": "",
          "type": "bytes32"
        }
      ],
      "stateMutability": "view",
      "type": "function"
    },
    {
      "inputs": [],
      "name": "fundRaise",
      "outputs": [
        {
          "internalType": "contract FunRaiseInterface",
          "name": "",
          "type": "address"
        }
      ],
      "stateMutability": "view",
      "type": "function"
    },
    {
      "inputs": [],
      "name": "podo",
      "outputs": [
        {
          "internalType": "contract IERC20",
          "name": "",
          "type": "address"
        }
      ],
      "stateMutability": "view",
      "type": "function"
    },
    {
      "inputs": [],
      "name": "timelock",
      "outputs": [
        {
          "internalType": "contract TimelockInterface",
          "name": "",
          "type": "address"
        }
      ],
      "stateMutability": "view",
      "type": "function"
    },
    {
      "inputs": [],
      "name": "votingDelay",
      "outputs": [
        {
          "internalType": "uint256",
          "name": "",
          "type": "uint256"
        }
      ],
      "stateMutability": "pure",
      "type": "function"
    },
    {
      "inputs": [],
      "name": "votingPeriod",
      "outputs": [
        {
          "internalType": "uint256",
          "name": "",
          "type": "uint256"
        }
      ],
      "stateMutability": "pure",
      "type": "function"
    },
    {
      "inputs": [
        {
          "internalType": "uint256",
          "name": "_pid",
          "type": "uint256"
        },
        {
          "internalType": "string",
          "name": "_title",
          "type": "string"
        },
        {
          "internalType": "string",
          "name": "_desc",
          "type": "string"
        }
      ],
      "name": "propose",
      "outputs": [],
      "stateMutability": "nonpayable",
      "type": "function"
    },
    {
      "inputs": [
        {
          "internalType": "address",
          "name": "_group",
          "type": "address"
        },
        {
          "internalType": "uint256",
          "name": "_pid",
          "type": "uint256"
        }
      ],
      "name": "state",
      "outputs": [
        {
          "internalType": "enum Governor.ProposalState",
          "name": "",
          "type": "uint8"
        }
      ],
      "stateMutability": "view",
      "type": "function"
    },
    {
      "inputs": [],
      "name": "execute",
      "outputs": [],
      "stateMutability": "nonpayable",
      "type": "function"
    },
    {
      "inputs": [],
      "name": "cancel",
      "outputs": [],
      "stateMutability": "nonpayable",
      "type": "function"
    },
    {
      "inputs": [
        {
          "internalType": "address",
          "name": "_voter",
          "type": "address"
        },
        {
          "internalType": "address",
          "name": "_group",
          "type": "address"
        },
        {
          "internalType": "uint256",
          "name": "_pid",
          "type": "uint256"
        },
        {
          "internalType": "uint256",
          "name": "_amount",
          "type": "uint256"
        },
        {
          "internalType": "string",
          "name": "reason",
          "type": "string"
        },
        {
          "internalType": "bool",
          "name": "support",
          "type": "bool"
        }
      ],
      "name": "castVote",
      "outputs": [],
      "stateMutability": "nonpayable",
      "type": "function"
    }
  ],
  "bytecode": "0x608060405260405180602001604052806000815250805190602001206000553480156200002b57600080fd5b50604051620013b6380380620013b683398181016040528101906200005191906200018d565b83600160006101000a81548173ffffffffffffffffffffffffffffffffffffffff021916908373ffffffffffffffffffffffffffffffffffffffff16021790555082600460006101000a81548173ffffffffffffffffffffffffffffffffffffffff021916908373ffffffffffffffffffffffffffffffffffffffff16021790555081600260006101000a81548173ffffffffffffffffffffffffffffffffffffffff021916908373ffffffffffffffffffffffffffffffffffffffff16021790555080600360006101000a81548173ffffffffffffffffffffffffffffffffffffffff021916908373ffffffffffffffffffffffffffffffffffffffff1602179055505050505062000275565b600081519050620001708162000241565b92915050565b60008151905062000187816200025b565b92915050565b60008060008060808587031215620001a457600080fd5b6000620001b48782880162000176565b9450506020620001c7878288016200015f565b9350506040620001da878288016200015f565b9250506060620001ed878288016200015f565b91505092959194509250565b6000620002068262000221565b9050919050565b60006200021a82620001f9565b9050919050565b600073ffffffffffffffffffffffffffffffffffffffff82169050919050565b6200024c81620001f9565b81146200025857600080fd5b50565b62000266816200020d565b81146200027257600080fd5b50565b61113180620002856000396000f3fe608060405234801561001057600080fd5b50600436106100b45760003560e01c80637e3d9890116100715780637e3d98901461016b5780637eaf857814610187578063ac3910a2146101a3578063d33219b4146101c1578063ea8a1af0146101df578063f2a75fe4146101e9576100b4565b806302a251a3146100b957806304853ef7146100d75780633932abb1146101075780634b46f9dc14610125578063614619541461014357806369fd3e1a1461014d575b600080fd5b6100c1610207565b6040516100ce9190610d35565b60405180910390f35b6100f160048036038101906100ec9190610abd565b610211565b6040516100fe9190610cfa565b60405180910390f35b61010f6103d4565b60405161011c9190610d35565b60405180910390f35b61012d6103dd565b60405161013a9190610ca9565b60405180910390f35b61014b610403565b005b610155610405565b6040516101629190610cc4565b60405180910390f35b61018560048036038101906101809190610a1c565b61042b565b005b6101a1600480360381019061019c9190610b22565b6106be565b005b6101ab610853565b6040516101b89190610c8e565b60405180910390f35b6101c9610879565b6040516101d69190610cdf565b60405180910390f35b6101e761089f565b005b6101f16108a1565b6040516101fe9190610c73565b60405180910390f35b6000614380905090565b600080600560008573ffffffffffffffffffffffffffffffffffffffff1673ffffffffffffffffffffffffffffffffffffffff168152602001908152602001600020600084815260200190815260200160002090508060070160019054906101000a900460ff16156102875760029150506103ce565b8060050154431161029c5760009150506103ce565b806006015443116102b15760019150506103ce565b80600401548160030154116102ca5760039150506103ce565b6000816002015414156102e15760049150506103ce565b8060070160009054906101000a900460ff16156103025760079150506103ce565b6103b8600360009054906101000a900473ffffffffffffffffffffffffffffffffffffffff1673ffffffffffffffffffffffffffffffffffffffff1663c1a287e26040518163ffffffff1660e01b815260040160206040518083038186803b15801561036d57600080fd5b505afa158015610381573d6000803e3d6000fd5b505050506040513d601f19601f820116820180604052508101906103a59190610af9565b82600201546108a790919063ffffffff16565b42106103c85760069150506103ce565b60059150505b92915050565b60006001905090565b600260009054906101000a900473ffffffffffffffffffffffffffffffffffffffff1681565b565b600160009054906101000a900473ffffffffffffffffffffffffffffffffffffffff1681565b6000600560008773ffffffffffffffffffffffffffffffffffffffff1673ffffffffffffffffffffffffffffffffffffffff1681526020019081526020016000206000868152602001908152602001600020905060008160080160008973ffffffffffffffffffffffffffffffffffffffff1673ffffffffffffffffffffffffffffffffffffffff1681526020019081526020016000209050600660008873ffffffffffffffffffffffffffffffffffffffff1673ffffffffffffffffffffffffffffffffffffffff168152602001908152602001600020600087815260200190815260200160002060405180602001604052808a73ffffffffffffffffffffffffffffffffffffffff168152509080600181540180825580915050600190039060005260206000200160009091909190915060008201518160000160006101000a81548173ffffffffffffffffffffffffffffffffffffffff021916908373ffffffffffffffffffffffffffffffffffffffff160217905550505060018160000160006101000a81548160ff021916908315150217905550838160020190805190602001906105dc9291906108bd565b50828160000160016101000a81548160ff021916908315150217905550848160010181905550600460009054906101000a900473ffffffffffffffffffffffffffffffffffffffff1673ffffffffffffffffffffffffffffffffffffffff1663954b22808888886040518463ffffffff1660e01b815260040161066193929190610c3c565b602060405180830381600087803b15801561067b57600080fd5b505af115801561068f573d6000803e3d6000fd5b505050506040513d601f19601f820116820180604052508101906106b39190610af9565b505050505050505050565b6000548280519060200120141580156106e05750600054818051906020012014155b61071f576040517f08c379a000000000000000000000000000000000000000000000000000000000815260040161071690610d15565b60405180910390fd5b600061073b61072c6103d4565b436108a790919063ffffffff16565b9050600061075961074a610207565b836108a790919063ffffffff16565b90506000600560003373ffffffffffffffffffffffffffffffffffffffff1673ffffffffffffffffffffffffffffffffffffffff16815260200190815260200160002060008781526020019081526020016000209050848160000190805190602001906107c79291906108bd565b50838160010190805190602001906107e09291906108bd565b5060008160020181905550600081600301819055506000816004018190555082816005018190555081816006018190555060008160070160006101000a81548160ff02191690831515021790555060008160070160016101000a81548160ff021916908315150217905550505050505050565b600460009054906101000a900473ffffffffffffffffffffffffffffffffffffffff1681565b600360009054906101000a900473ffffffffffffffffffffffffffffffffffffffff1681565b565b60005481565b600081836108b59190610db7565b905092915050565b8280546108c990610f23565b90600052602060002090601f0160209004810192826108eb5760008555610932565b82601f1061090457805160ff1916838001178555610932565b82800160010185558215610932579182015b82811115610931578251825591602001919060010190610916565b5b50905061093f9190610943565b5090565b5b8082111561095c576000816000905550600101610944565b5090565b600061097361096e84610d75565b610d50565b90508281526020810184848401111561098b57600080fd5b610996848285610f14565b509392505050565b6000813590506109ad816110b6565b92915050565b6000813590506109c2816110cd565b92915050565b600082601f8301126109d957600080fd5b81356109e9848260208601610960565b91505092915050565b600081359050610a01816110e4565b92915050565b600081519050610a16816110e4565b92915050565b60008060008060008060c08789031215610a3557600080fd5b6000610a4389828a0161099e565b9650506020610a5489828a0161099e565b9550506040610a6589828a016109f2565b9450506060610a7689828a016109f2565b935050608087013567ffffffffffffffff811115610a9357600080fd5b610a9f89828a016109c8565b92505060a0610ab089828a016109b3565b9150509295509295509295565b60008060408385031215610ad057600080fd5b6000610ade8582860161099e565b9250506020610aef858286016109f2565b9150509250929050565b600060208284031215610b0b57600080fd5b6000610b1984828501610a07565b91505092915050565b600080600060608486031215610b3757600080fd5b6000610b45868287016109f2565b935050602084013567ffffffffffffffff811115610b6257600080fd5b610b6e868287016109c8565b925050604084013567ffffffffffffffff811115610b8b57600080fd5b610b97868287016109c8565b9150509250925092565b610baa81610e0d565b82525050565b610bb981610e2b565b82525050565b610bc881610e72565b82525050565b610bd781610e96565b82525050565b610be681610eba565b82525050565b610bf581610ede565b82525050565b610c0481610f02565b82525050565b6000610c17602483610da6565b9150610c2282611053565b604082019050919050565b610c3681610e68565b82525050565b6000606082019050610c516000830186610ba1565b610c5e6020830185610c2d565b610c6b6040830184610c2d565b949350505050565b6000602082019050610c886000830184610bb0565b92915050565b6000602082019050610ca36000830184610bbf565b92915050565b6000602082019050610cbe6000830184610bce565b92915050565b6000602082019050610cd96000830184610bdd565b92915050565b6000602082019050610cf46000830184610bec565b92915050565b6000602082019050610d0f6000830184610bfb565b92915050565b60006020820190508181036000830152610d2e81610c0a565b9050919050565b6000602082019050610d4a6000830184610c2d565b92915050565b6000610d5a610d6b565b9050610d668282610f55565b919050565b6000604051905090565b600067ffffffffffffffff821115610d9057610d8f611013565b5b610d9982611042565b9050602081019050919050565b600082825260208201905092915050565b6000610dc282610e68565b9150610dcd83610e68565b9250827fffffffffffffffffffffffffffffffffffffffffffffffffffffffffffffffff03821115610e0257610e01610f86565b5b828201905092915050565b6000610e1882610e48565b9050919050565b60008115159050919050565b6000819050919050565b6000819050610e43826110a2565b919050565b600073ffffffffffffffffffffffffffffffffffffffff82169050919050565b6000819050919050565b6000610e7d82610e84565b9050919050565b6000610e8f82610e48565b9050919050565b6000610ea182610ea8565b9050919050565b6000610eb382610e48565b9050919050565b6000610ec582610ecc565b9050919050565b6000610ed782610e48565b9050919050565b6000610ee982610ef0565b9050919050565b6000610efb82610e48565b9050919050565b6000610f0d82610e35565b9050919050565b82818337600083830152505050565b60006002820490506001821680610f3b57607f821691505b60208210811415610f4f57610f4e610fe4565b5b50919050565b610f5e82611042565b810181811067ffffffffffffffff82111715610f7d57610f7c611013565b5b80604052505050565b7f4e487b7100000000000000000000000000000000000000000000000000000000600052601160045260246000fd5b7f4e487b7100000000000000000000000000000000000000000000000000000000600052602160045260246000fd5b7f4e487b7100000000000000000000000000000000000000000000000000000000600052602260045260246000fd5b7f4e487b7100000000000000000000000000000000000000000000000000000000600052604160045260246000fd5b6000601f19601f8301169050919050565b7f504f444f3a20506c6561736520696e7075742067726f7570206e616d652c206460008201527f6573632e00000000000000000000000000000000000000000000000000000000602082015250565b600881106110b3576110b2610fb5565b5b50565b6110bf81610e0d565b81146110ca57600080fd5b50565b6110d681610e1f565b81146110e157600080fd5b50565b6110ed81610e68565b81146110f857600080fd5b5056fea26469706673582212206a49192a3bfd6858c32ca6a730a2732616040dc4427faa7ae0fa1c711336e2a964736f6c63430008040033",
  "immutableReferences": {},
  "source": "// SPDX-License-Identifier: MIT\n\npragma solidity ^0.8.0;\n\nimport \"./openzeppelin/IERC20.sol\";\nimport \"./openzeppelin/SafeMath.sol\";\n\ncontract Governor {\n    using SafeMath for uint256;\n\n    bytes32 public empty = keccak256(bytes(\"\"));\n    IERC20 public podo;\n\n    FunRaiseInterface public fundRaise;\n    TimelockInterface public timelock;\n    Ballot2Interface public ballot;\n\n    //  \n    function votingDelay() public pure returns (uint256) {\n        return 1;\n    } // 1 block\n\n    //  \n    function votingPeriod() public pure returns (uint256) {\n        return 17280;\n    } // ~3 days in blocks (assuming 15s blocks)\n\n    /**\n         WorkFlow\n         ->  ->  ->  -> \n     */\n    //  \n    struct Proposal {\n        string title;\n        string desc;\n        //     \n        uint256 eta;\n        uint256 forVotes;\n        uint256 againstVotes;\n        uint256 voteStart;\n        uint256 voteEnd;\n        bool executed;\n        bool canceled;\n        mapping(address => Receipt) receipts;\n    }\n    //  \n    enum ProposalState {\n        Pending,\n        Active,\n        Canceled,\n        Defeated,\n        Succeeded,\n        Queued,\n        Expired,\n        Executed\n    }\n    //  \n    struct Receipt {\n        //    ?\n        bool hasVoted;\n        bool support;\n        uint256 votes;\n        string reason;\n    }\n    //  \n    struct VoterInfo {\n        address voter;\n    }\n    //   ->  pid -> \n    mapping(address => mapping(uint256 => Proposal)) proposals;\n\n    //  \n    mapping(address => mapping(uint256 => VoterInfo[])) voterInfo;\n\n    //   \n    constructor(\n        IERC20 _podo,\n        address _ballot,\n        address _fundRaise,\n        address _timelock\n    ) {\n        podo = _podo;\n        ballot = Ballot2Interface(_ballot);\n        fundRaise = FunRaiseInterface(_fundRaise);\n        timelock = TimelockInterface(_timelock);\n    }\n\n    modifier onlyGroupOwner() {\n        // TODO    \n        _;\n    }\n\n    /**\n         \n\n        **\n        _title, _desc  \n        _pid   .\n     */\n    function propose(\n        uint256 _pid,\n        string memory _title,\n        string memory _desc\n    ) public {\n        //  _title, _desc  \n        require(\n            keccak256(bytes(_title)) != empty &&\n                keccak256(bytes(_desc)) != empty,\n            \"PODO: Please input group name, desc.\"\n        );\n        // TODO _pid   .\n\n        //  \n        uint256 startBlock = block.number.add(votingDelay());\n        //  \n        uint256 endBlock = startBlock.add(votingPeriod());\n\n        //  newpropsal  \n        Proposal storage newProposal = proposals[msg.sender][_pid];\n        //   \n        newProposal.title = _title;\n        newProposal.desc = _desc;\n        newProposal.eta = 0;\n        newProposal.forVotes = 0;\n        newProposal.againstVotes = 0;\n        newProposal.voteStart = startBlock;\n        newProposal.voteEnd = endBlock;\n        newProposal.executed = false;\n        newProposal.canceled = false;\n        // TODO   \n    }\n\n    /**\n          \n     */\n    function state(address _group, uint256 _pid)\n        public\n        view\n        returns (ProposalState)\n    {\n        //   ->  _pid  \n        Proposal storage proposal = proposals[_group][_pid];\n        //  \n        if (proposal.canceled) {\n            return ProposalState.Canceled;\n        }\n        //  \n        else if (block.number <= proposal.voteStart) {\n            return ProposalState.Pending;\n        }\n        //  \n        else if (block.number <= proposal.voteEnd) {\n            return ProposalState.Active;\n        }\n        //   ( <=      )\n        else if (proposal.forVotes <= proposal.againstVotes) {\n            return ProposalState.Defeated;\n        }\n        //  ,    \n        else if (proposal.eta == 0) {\n            return ProposalState.Succeeded;\n        }\n        //  \n        else if (proposal.executed) {\n            return ProposalState.Executed;\n        }\n        //       \n        else if (block.timestamp >= proposal.eta.add(timelock.GRACE_PERIOD())) {\n            return ProposalState.Expired;\n        }\n        //  \n        else {\n            return ProposalState.Queued;\n        }\n        // TODO   \n    }\n\n    /**\n        \n     */\n    function execute() public {}\n\n    /**\n        \n     */\n    function cancel() public {}\n\n    /**\n        \n        \n        **\n             \n          \n\n     */\n    function castVote(\n        address _voter,\n        address _group,\n        uint256 _pid,\n        uint256 _amount,\n        string memory reason,\n        bool support\n    ) public {\n        //    \n        Proposal storage proposal = proposals[_group][_pid];\n        //     \n        Receipt storage receipt = proposal.receipts[_voter];\n        //     \n        voterInfo[_group][_pid].push(VoterInfo({voter: _voter}));\n        //     \n        receipt.hasVoted = true;\n        receipt.reason = reason;\n        receipt.support = support;\n        receipt.votes = _amount;\n        // ballot  \n        ballot.voteToProject(_group, _pid, _amount);\n        // TODO   \n    }\n}\n\ninterface TimelockInterface {\n    function delay() external view returns (uint256);\n\n    function GRACE_PERIOD() external view returns (uint256);\n\n    function acceptAdmin() external;\n\n    function queuedTransactions(bytes32 hash) external view returns (bool);\n\n    function queueTransaction(\n        address target,\n        uint256 value,\n        string calldata signature,\n        bytes calldata data,\n        uint256 eta\n    ) external returns (bytes32);\n\n    function cancelTransaction(\n        address target,\n        uint256 value,\n        string calldata signature,\n        bytes calldata data,\n        uint256 eta\n    ) external;\n\n    function executeTransaction(\n        address target,\n        uint256 value,\n        string calldata signature,\n        bytes calldata data,\n        uint256 eta\n    ) external payable returns (bytes memory);\n}\n\ninterface FunRaiseInterface {\n    function viewGroupProjectInfo(address _group, uint256 _pid) external;\n}\n\ninterface Ballot2Interface {\n    function voteToProject(\n        address _group,\n        uint256 _pid,\n        uint256 _amount\n    ) external returns (uint256);\n}\n",
  "sourcePath": "/Users/minje/Desktop/recat/contracts/Governor.sol",
  "compiler": {
    "name": "solc",
    "version": "0.8.4+commit.c7e474f2.Emscripten.clang"
  },
  "schemaVersion": "3.4.3",
  "updatedAt": "2021-09-30T12:24:14.465Z",
  "devdoc": {
    "kind": "dev",
    "methods": {},
    "version": 1
  },
  "userdoc": {
    "kind": "user",
    "methods": {
      "cancel()": {
        "notice": ""
      },
      "castVote(address,address,uint256,uint256,string,bool)": {
        "notice": "**         "
      },
      "execute()": {
        "notice": ""
      },
      "propose(uint256,string,string)": {
        "notice": " ** _title, _desc   _pid   ."
      },
      "state(address,uint256)": {
        "notice": "  "
      }
    },
    "version": 1
  }
}