{
  "contractName": "Timelock",
  "abi": [
    {
      "inputs": [
        {
          "internalType": "address",
          "name": "admin_",
          "type": "address"
        },
        {
          "internalType": "uint256",
          "name": "delay_",
          "type": "uint256"
        }
      ],
      "stateMutability": "nonpayable",
      "type": "constructor"
    },
    {
      "anonymous": false,
      "inputs": [
        {
          "indexed": true,
          "internalType": "bytes32",
          "name": "txHash",
          "type": "bytes32"
        },
        {
          "indexed": true,
          "internalType": "address",
          "name": "target",
          "type": "address"
        },
        {
          "indexed": false,
          "internalType": "uint256",
          "name": "value",
          "type": "uint256"
        },
        {
          "indexed": false,
          "internalType": "string",
          "name": "signature",
          "type": "string"
        },
        {
          "indexed": false,
          "internalType": "bytes",
          "name": "data",
          "type": "bytes"
        },
        {
          "indexed": false,
          "internalType": "uint256",
          "name": "eta",
          "type": "uint256"
        }
      ],
      "name": "CancelTransaction",
      "type": "event"
    },
    {
      "anonymous": false,
      "inputs": [
        {
          "indexed": true,
          "internalType": "bytes32",
          "name": "txHash",
          "type": "bytes32"
        },
        {
          "indexed": true,
          "internalType": "address",
          "name": "target",
          "type": "address"
        },
        {
          "indexed": false,
          "internalType": "uint256",
          "name": "value",
          "type": "uint256"
        },
        {
          "indexed": false,
          "internalType": "string",
          "name": "signature",
          "type": "string"
        },
        {
          "indexed": false,
          "internalType": "bytes",
          "name": "data",
          "type": "bytes"
        },
        {
          "indexed": false,
          "internalType": "uint256",
          "name": "eta",
          "type": "uint256"
        }
      ],
      "name": "ExecuteTransaction",
      "type": "event"
    },
    {
      "anonymous": false,
      "inputs": [
        {
          "indexed": true,
          "internalType": "address",
          "name": "newAdmin",
          "type": "address"
        }
      ],
      "name": "NewAdmin",
      "type": "event"
    },
    {
      "anonymous": false,
      "inputs": [
        {
          "indexed": true,
          "internalType": "uint256",
          "name": "newDelay",
          "type": "uint256"
        }
      ],
      "name": "NewDelay",
      "type": "event"
    },
    {
      "anonymous": false,
      "inputs": [
        {
          "indexed": true,
          "internalType": "address",
          "name": "newPendingAdmin",
          "type": "address"
        }
      ],
      "name": "NewPendingAdmin",
      "type": "event"
    },
    {
      "anonymous": false,
      "inputs": [
        {
          "indexed": true,
          "internalType": "bytes32",
          "name": "txHash",
          "type": "bytes32"
        },
        {
          "indexed": true,
          "internalType": "address",
          "name": "target",
          "type": "address"
        },
        {
          "indexed": false,
          "internalType": "uint256",
          "name": "value",
          "type": "uint256"
        },
        {
          "indexed": false,
          "internalType": "string",
          "name": "signature",
          "type": "string"
        },
        {
          "indexed": false,
          "internalType": "bytes",
          "name": "data",
          "type": "bytes"
        },
        {
          "indexed": false,
          "internalType": "uint256",
          "name": "eta",
          "type": "uint256"
        }
      ],
      "name": "QueueTransaction",
      "type": "event"
    },
    {
      "inputs": [],
      "name": "GRACE_PERIOD",
      "outputs": [
        {
          "internalType": "uint256",
          "name": "",
          "type": "uint256"
        }
      ],
      "stateMutability": "view",
      "type": "function"
    },
    {
      "inputs": [],
      "name": "MAXIMUM_DELAY",
      "outputs": [
        {
          "internalType": "uint256",
          "name": "",
          "type": "uint256"
        }
      ],
      "stateMutability": "view",
      "type": "function"
    },
    {
      "inputs": [],
      "name": "MINIMUM_DELAY",
      "outputs": [
        {
          "internalType": "uint256",
          "name": "",
          "type": "uint256"
        }
      ],
      "stateMutability": "view",
      "type": "function"
    },
    {
      "inputs": [],
      "name": "admin",
      "outputs": [
        {
          "internalType": "address",
          "name": "",
          "type": "address"
        }
      ],
      "stateMutability": "view",
      "type": "function"
    },
    {
      "inputs": [],
      "name": "admin_initialized",
      "outputs": [
        {
          "internalType": "bool",
          "name": "",
          "type": "bool"
        }
      ],
      "stateMutability": "view",
      "type": "function"
    },
    {
      "inputs": [],
      "name": "delay",
      "outputs": [
        {
          "internalType": "uint256",
          "name": "",
          "type": "uint256"
        }
      ],
      "stateMutability": "view",
      "type": "function"
    },
    {
      "inputs": [],
      "name": "pendingAdmin",
      "outputs": [
        {
          "internalType": "address",
          "name": "",
          "type": "address"
        }
      ],
      "stateMutability": "view",
      "type": "function"
    },
    {
      "inputs": [
        {
          "internalType": "bytes32",
          "name": "",
          "type": "bytes32"
        }
      ],
      "name": "queuedTransactions",
      "outputs": [
        {
          "internalType": "bool",
          "name": "",
          "type": "bool"
        }
      ],
      "stateMutability": "view",
      "type": "function"
    },
    {
      "stateMutability": "payable",
      "type": "receive"
    },
    {
      "inputs": [
        {
          "internalType": "uint256",
          "name": "delay_",
          "type": "uint256"
        }
      ],
      "name": "setDelay",
      "outputs": [],
      "stateMutability": "nonpayable",
      "type": "function"
    },
    {
      "inputs": [],
      "name": "acceptAdmin",
      "outputs": [],
      "stateMutability": "nonpayable",
      "type": "function"
    },
    {
      "inputs": [
        {
          "internalType": "address",
          "name": "pendingAdmin_",
          "type": "address"
        }
      ],
      "name": "setPendingAdmin",
      "outputs": [],
      "stateMutability": "nonpayable",
      "type": "function"
    },
    {
      "inputs": [
        {
          "internalType": "address",
          "name": "target",
          "type": "address"
        },
        {
          "internalType": "uint256",
          "name": "value",
          "type": "uint256"
        },
        {
          "internalType": "string",
          "name": "signature",
          "type": "string"
        },
        {
          "internalType": "bytes",
          "name": "data",
          "type": "bytes"
        },
        {
          "internalType": "uint256",
          "name": "eta",
          "type": "uint256"
        }
      ],
      "name": "queueTransaction",
      "outputs": [
        {
          "internalType": "bytes32",
          "name": "",
          "type": "bytes32"
        }
      ],
      "stateMutability": "nonpayable",
      "type": "function"
    },
    {
      "inputs": [
        {
          "internalType": "address",
          "name": "target",
          "type": "address"
        },
        {
          "internalType": "uint256",
          "name": "value",
          "type": "uint256"
        },
        {
          "internalType": "string",
          "name": "signature",
          "type": "string"
        },
        {
          "internalType": "bytes",
          "name": "data",
          "type": "bytes"
        },
        {
          "internalType": "uint256",
          "name": "eta",
          "type": "uint256"
        }
      ],
      "name": "cancelTransaction",
      "outputs": [],
      "stateMutability": "nonpayable",
      "type": "function"
    },
    {
      "inputs": [
        {
          "internalType": "address",
          "name": "target",
          "type": "address"
        },
        {
          "internalType": "uint256",
          "name": "value",
          "type": "uint256"
        },
        {
          "internalType": "string",
          "name": "signature",
          "type": "string"
        },
        {
          "internalType": "bytes",
          "name": "data",
          "type": "bytes"
        },
        {
          "internalType": "uint256",
          "name": "eta",
          "type": "uint256"
        }
      ],
      "name": "executeTransaction",
      "outputs": [
        {
          "internalType": "bytes",
          "name": "",
          "type": "bytes"
        }
      ],
      "stateMutability": "payable",
      "type": "function"
    }
  ],
  "bytecode": "0x60806040523480156200001157600080fd5b506040516200222f3803806200222f833981810160405281019062000037919062000160565b6154608110156200007f576040517f08c379a0000000000000000000000000000000000000000000000000000000008152600401620000769062000211565b60405180910390fd5b62278d00811115620000c8576040517f08c379a0000000000000000000000000000000000000000000000000000000008152600401620000bf90620001ef565b60405180910390fd5b816000806101000a81548173ffffffffffffffffffffffffffffffffffffffff021916908373ffffffffffffffffffffffffffffffffffffffff160217905550806002819055506000600360006101000a81548160ff021916908315150217905550505062000354565b600081519050620001438162000320565b92915050565b6000815190506200015a816200033a565b92915050565b600080604083850312156200017457600080fd5b6000620001848582860162000132565b9250506020620001978582860162000149565b9150509250929050565b6000620001b0603b8362000233565b9150620001bd8262000282565b604082019050919050565b6000620001d760378362000233565b9150620001e482620002d1565b604082019050919050565b600060208201905081810360008301526200020a81620001a1565b9050919050565b600060208201905081810360008301526200022c81620001c8565b9050919050565b600082825260208201905092915050565b6000620002518262000258565b9050919050565b600073ffffffffffffffffffffffffffffffffffffffff82169050919050565b6000819050919050565b7f54696d656c6f636b3a3a636f6e7374727563746f723a2044656c6179206d757360008201527f74206e6f7420657863656564206d6178696d756d2064656c61792e0000000000602082015250565b7f54696d656c6f636b3a3a636f6e7374727563746f723a2044656c6179206d757360008201527f7420657863656564206d696e696d756d2064656c61792e000000000000000000602082015250565b6200032b8162000244565b81146200033757600080fd5b50565b620003458162000278565b81146200035157600080fd5b50565b611ecb80620003646000396000f3fe6080604052600436106100e15760003560e01c80636fc1f57e1161007f578063c1a287e211610059578063c1a287e21461029a578063e177246e146102c5578063f2b06537146102ee578063f851a4401461032b576100e8565b80636fc1f57e146102195780637d645fab14610244578063b1b43ae51461026f576100e8565b80633a66f901116100bb5780633a66f9011461015f5780634dd18bf51461019c578063591fcdfe146101c55780636a42b8f8146101ee576100e8565b80630825f38f146100ed5780630e18b6811461011d5780632678224714610134576100e8565b366100e857005b600080fd5b6101076004803603810190610102919061100e565b610356565b60405161011491906114d8565b60405180910390f35b34801561012957600080fd5b506101326106a3565b005b34801561014057600080fd5b5061014961081a565b6040516101569190611426565b60405180910390f35b34801561016b57600080fd5b506101866004803603810190610181919061100e565b610840565b60405161019391906114bd565b60405180910390f35b3480156101a857600080fd5b506101c360048036038101906101be9190610fe5565b6109f0565b005b3480156101d157600080fd5b506101ec60048036038101906101e7919061100e565b610bcb565b005b3480156101fa57600080fd5b50610203610d15565b60405161021091906116ba565b60405180910390f35b34801561022557600080fd5b5061022e610d1b565b60405161023b91906114a2565b60405180910390f35b34801561025057600080fd5b50610259610d2e565b60405161026691906116ba565b60405180910390f35b34801561027b57600080fd5b50610284610d35565b60405161029191906116ba565b60405180910390f35b3480156102a657600080fd5b506102af610d3b565b6040516102bc91906116ba565b60405180910390f35b3480156102d157600080fd5b506102ec60048036038101906102e791906110de565b610d42565b005b3480156102fa57600080fd5b50610315600480360381019061031091906110b5565b610e74565b60405161032291906114a2565b60405180910390f35b34801561033757600080fd5b50610340610e94565b60405161034d9190611426565b60405180910390f35b606060008054906101000a900473ffffffffffffffffffffffffffffffffffffffff1673ffffffffffffffffffffffffffffffffffffffff163373ffffffffffffffffffffffffffffffffffffffff16146103e6576040517f08c379a00000000000000000000000000000000000000000000000000000000081526004016103dd906114fa565b60405180910390fd5b60008686868686604051602001610401959493929190611441565b6040516020818303038152906040528051906020012090506004600082815260200190815260200160002060009054906101000a900460ff16610479576040517f08c379a0000000000000000000000000000000000000000000000000000000008152600401610470906115da565b60405180910390fd5b82610482610eb8565b10156104c3576040517f08c379a00000000000000000000000000000000000000000000000000000000081526004016104ba9061155a565b60405180910390fd5b6104d96212750084610ec090919063ffffffff16565b6104e1610eb8565b1115610522576040517f08c379a00000000000000000000000000000000000000000000000000000000081526004016105199061153a565b60405180910390fd5b60006004600083815260200190815260200160002060006101000a81548160ff02191690831515021790555060606000865114156105625784905061058e565b85805190602001208560405160200161057c9291906113e7565b60405160208183030381529060405290505b6000808973ffffffffffffffffffffffffffffffffffffffff1689846040516105b7919061140f565b60006040518083038185875af1925050503d80600081146105f4576040519150601f19603f3d011682016040523d82523d6000602084013e6105f9565b606091505b50915091508161063e576040517f08c379a00000000000000000000000000000000000000000000000000000000081526004016106359061165a565b60405180910390fd5b8973ffffffffffffffffffffffffffffffffffffffff16847fa560e3198060a2f10670c1ec5b403077ea6ae93ca8de1c32b451dc1a943cd6e78b8b8b8b60405161068b94939291906116d5565b60405180910390a38094505050505095945050505050565b600160009054906101000a900473ffffffffffffffffffffffffffffffffffffffff1673ffffffffffffffffffffffffffffffffffffffff163373ffffffffffffffffffffffffffffffffffffffff1614610733576040517f08c379a000000000000000000000000000000000000000000000000000000000815260040161072a906115fa565b60405180910390fd5b336000806101000a81548173ffffffffffffffffffffffffffffffffffffffff021916908373ffffffffffffffffffffffffffffffffffffffff1602179055506000600160006101000a81548173ffffffffffffffffffffffffffffffffffffffff021916908373ffffffffffffffffffffffffffffffffffffffff16021790555060008054906101000a900473ffffffffffffffffffffffffffffffffffffffff1673ffffffffffffffffffffffffffffffffffffffff167f71614071b88dee5e0b2ae578a9dd7b2ebbe9ae832ba419dc0242cd065a290b6c60405160405180910390a2565b600160009054906101000a900473ffffffffffffffffffffffffffffffffffffffff1681565b60008060009054906101000a900473ffffffffffffffffffffffffffffffffffffffff1673ffffffffffffffffffffffffffffffffffffffff163373ffffffffffffffffffffffffffffffffffffffff16146108d1576040517f08c379a00000000000000000000000000000000000000000000000000000000081526004016108c89061163a565b60405180910390fd5b6108ed6002546108df610eb8565b610ec090919063ffffffff16565b82101561092f576040517f08c379a00000000000000000000000000000000000000000000000000000000081526004016109269061167a565b60405180910390fd5b6000868686868660405160200161094a959493929190611441565b60405160208183030381529060405280519060200120905060016004600083815260200190815260200160002060006101000a81548160ff0219169083151502179055508673ffffffffffffffffffffffffffffffffffffffff16817f76e2796dc3a81d57b0e8504b647febcbeeb5f4af818e164f11eef8131a6a763f888888886040516109db94939291906116d5565b60405180910390a38091505095945050505050565b600360009054906101000a900460ff1615610a78573073ffffffffffffffffffffffffffffffffffffffff163373ffffffffffffffffffffffffffffffffffffffff1614610a73576040517f08c379a0000000000000000000000000000000000000000000000000000000008152600401610a6a9061161a565b60405180910390fd5b610b22565b60008054906101000a900473ffffffffffffffffffffffffffffffffffffffff1673ffffffffffffffffffffffffffffffffffffffff163373ffffffffffffffffffffffffffffffffffffffff1614610b06576040517f08c379a0000000000000000000000000000000000000000000000000000000008152600401610afd9061159a565b60405180910390fd5b6001600360006101000a81548160ff0219169083151502179055505b80600160006101000a81548173ffffffffffffffffffffffffffffffffffffffff021916908373ffffffffffffffffffffffffffffffffffffffff160217905550600160009054906101000a900473ffffffffffffffffffffffffffffffffffffffff1673ffffffffffffffffffffffffffffffffffffffff167f69d78e38a01985fbb1462961809b4b2d65531bc93b2b94037f3334b82ca4a75660405160405180910390a250565b60008054906101000a900473ffffffffffffffffffffffffffffffffffffffff1673ffffffffffffffffffffffffffffffffffffffff163373ffffffffffffffffffffffffffffffffffffffff1614610c59576040517f08c379a0000000000000000000000000000000000000000000000000000000008152600401610c509061151a565b60405180910390fd5b60008585858585604051602001610c74959493929190611441565b60405160208183030381529060405280519060200120905060006004600083815260200190815260200160002060006101000a81548160ff0219169083151502179055508573ffffffffffffffffffffffffffffffffffffffff16817f2fffc091a501fd91bfbff27141450d3acb40fb8e6d8382b243ec7a812a3aaf8787878787604051610d0594939291906116d5565b60405180910390a3505050505050565b60025481565b600360009054906101000a900460ff1681565b62278d0081565b61546081565b6212750081565b3073ffffffffffffffffffffffffffffffffffffffff163373ffffffffffffffffffffffffffffffffffffffff1614610db0576040517f08c379a0000000000000000000000000000000000000000000000000000000008152600401610da79061169a565b60405180910390fd5b615460811015610df5576040517f08c379a0000000000000000000000000000000000000000000000000000000008152600401610dec9061157a565b60405180910390fd5b62278d00811115610e3b576040517f08c379a0000000000000000000000000000000000000000000000000000000008152600401610e32906115ba565b60405180910390fd5b806002819055506002547f948b1f6a42ee138b7e34058ba85a37f716d55ff25ff05a763f15bed6a04c8d2c60405160405180910390a250565b60046020528060005260406000206000915054906101000a900460ff1681565b60008054906101000a900473ffffffffffffffffffffffffffffffffffffffff1681565b600042905090565b60008183610ece91906117f2565b905092915050565b6000610ee9610ee48461174d565b611728565b905082815260208101848484011115610f0157600080fd5b610f0c8482856118c6565b509392505050565b6000610f27610f228461177e565b611728565b905082815260208101848484011115610f3f57600080fd5b610f4a8482856118c6565b509392505050565b600081359050610f6181611e50565b92915050565b600081359050610f7681611e67565b92915050565b600082601f830112610f8d57600080fd5b8135610f9d848260208601610ed6565b91505092915050565b600082601f830112610fb757600080fd5b8135610fc7848260208601610f14565b91505092915050565b600081359050610fdf81611e7e565b92915050565b600060208284031215610ff757600080fd5b600061100584828501610f52565b91505092915050565b600080600080600060a0868803121561102657600080fd5b600061103488828901610f52565b955050602061104588828901610fd0565b945050604086013567ffffffffffffffff81111561106257600080fd5b61106e88828901610fa6565b935050606086013567ffffffffffffffff81111561108b57600080fd5b61109788828901610f7c565b92505060806110a888828901610fd0565b9150509295509295909350565b6000602082840312156110c757600080fd5b60006110d584828501610f67565b91505092915050565b6000602082840312156110f057600080fd5b60006110fe84828501610fd0565b91505092915050565b61111081611848565b82525050565b61111f8161185a565b82525050565b61112e81611866565b82525050565b61114561114082611870565b611939565b82525050565b6000611156826117af565b61116081856117c5565b93506111708185602086016118d5565b611179816119a1565b840191505092915050565b600061118f826117af565b61119981856117d6565b93506111a98185602086016118d5565b80840191505092915050565b60006111c0826117ba565b6111ca81856117e1565b93506111da8185602086016118d5565b6111e3816119a1565b840191505092915050565b60006111fb6038836117e1565b9150611206826119b2565b604082019050919050565b600061121e6037836117e1565b915061122982611a01565b604082019050919050565b60006112416033836117e1565b915061124c82611a50565b604082019050919050565b60006112646045836117e1565b915061126f82611a9f565b606082019050919050565b60006112876034836117e1565b915061129282611b14565b604082019050919050565b60006112aa603b836117e1565b91506112b582611b63565b604082019050919050565b60006112cd6038836117e1565b91506112d882611bb2565b604082019050919050565b60006112f0603d836117e1565b91506112fb82611c01565b604082019050919050565b60006113136038836117e1565b915061131e82611c50565b604082019050919050565b60006113366038836117e1565b915061134182611c9f565b604082019050919050565b60006113596036836117e1565b915061136482611cee565b604082019050919050565b600061137c603d836117e1565b915061138782611d3d565b604082019050919050565b600061139f6049836117e1565b91506113aa82611d8c565b606082019050919050565b60006113c26031836117e1565b91506113cd82611e01565b604082019050919050565b6113e1816118bc565b82525050565b60006113f38285611134565b6004820191506114038284611184565b91508190509392505050565b600061141b8284611184565b915081905092915050565b600060208201905061143b6000830184611107565b92915050565b600060a0820190506114566000830188611107565b61146360208301876113d8565b818103604083015261147581866111b5565b90508181036060830152611489818561114b565b905061149860808301846113d8565b9695505050505050565b60006020820190506114b76000830184611116565b92915050565b60006020820190506114d26000830184611125565b92915050565b600060208201905081810360008301526114f2818461114b565b905092915050565b60006020820190508181036000830152611513816111ee565b9050919050565b6000602082019050818103600083015261153381611211565b9050919050565b6000602082019050818103600083015261155381611234565b9050919050565b6000602082019050818103600083015261157381611257565b9050919050565b600060208201905081810360008301526115938161127a565b9050919050565b600060208201905081810360008301526115b38161129d565b9050919050565b600060208201905081810360008301526115d3816112c0565b9050919050565b600060208201905081810360008301526115f3816112e3565b9050919050565b6000602082019050818103600083015261161381611306565b9050919050565b6000602082019050818103600083015261163381611329565b9050919050565b600060208201905081810360008301526116538161134c565b9050919050565b600060208201905081810360008301526116738161136f565b9050919050565b6000602082019050818103600083015261169381611392565b9050919050565b600060208201905081810360008301526116b3816113b5565b9050919050565b60006020820190506116cf60008301846113d8565b92915050565b60006080820190506116ea60008301876113d8565b81810360208301526116fc81866111b5565b90508181036040830152611710818561114b565b905061171f60608301846113d8565b95945050505050565b6000611732611743565b905061173e8282611908565b919050565b6000604051905090565b600067ffffffffffffffff82111561176857611767611972565b5b611771826119a1565b9050602081019050919050565b600067ffffffffffffffff82111561179957611798611972565b5b6117a2826119a1565b9050602081019050919050565b600081519050919050565b600081519050919050565b600082825260208201905092915050565b600081905092915050565b600082825260208201905092915050565b60006117fd826118bc565b9150611808836118bc565b9250827fffffffffffffffffffffffffffffffffffffffffffffffffffffffffffffffff0382111561183d5761183c611943565b5b828201905092915050565b60006118538261189c565b9050919050565b60008115159050919050565b6000819050919050565b60007fffffffff0000000000000000000000000000000000000000000000000000000082169050919050565b600073ffffffffffffffffffffffffffffffffffffffff82169050919050565b6000819050919050565b82818337600083830152505050565b60005b838110156118f35780820151818401526020810190506118d8565b83811115611902576000848401525b50505050565b611911826119a1565b810181811067ffffffffffffffff821117156119305761192f611972565b5b80604052505050565b6000819050919050565b7f4e487b7100000000000000000000000000000000000000000000000000000000600052601160045260246000fd5b7f4e487b7100000000000000000000000000000000000000000000000000000000600052604160045260246000fd5b6000601f19601f8301169050919050565b7f54696d656c6f636b3a3a657865637574655472616e73616374696f6e3a20436160008201527f6c6c206d75737420636f6d652066726f6d2061646d696e2e0000000000000000602082015250565b7f54696d656c6f636b3a3a63616e63656c5472616e73616374696f6e3a2043616c60008201527f6c206d75737420636f6d652066726f6d2061646d696e2e000000000000000000602082015250565b7f54696d656c6f636b3a3a657865637574655472616e73616374696f6e3a20547260008201527f616e73616374696f6e206973207374616c652e00000000000000000000000000602082015250565b7f54696d656c6f636b3a3a657865637574655472616e73616374696f6e3a20547260008201527f616e73616374696f6e206861736e2774207375727061737365642074696d652060208201527f6c6f636b2e000000000000000000000000000000000000000000000000000000604082015250565b7f54696d656c6f636b3a3a73657444656c61793a2044656c6179206d757374206560008201527f7863656564206d696e696d756d2064656c61792e000000000000000000000000602082015250565b7f54696d656c6f636b3a3a73657450656e64696e6741646d696e3a20466972737460008201527f2063616c6c206d75737420636f6d652066726f6d2061646d696e2e0000000000602082015250565b7f54696d656c6f636b3a3a73657444656c61793a2044656c6179206d757374206e60008201527f6f7420657863656564206d6178696d756d2064656c61792e0000000000000000602082015250565b7f54696d656c6f636b3a3a657865637574655472616e73616374696f6e3a20547260008201527f616e73616374696f6e206861736e2774206265656e207175657565642e000000602082015250565b7f54696d656c6f636b3a3a61636365707441646d696e3a2043616c6c206d75737460008201527f20636f6d652066726f6d2070656e64696e6741646d696e2e0000000000000000602082015250565b7f54696d656c6f636b3a3a73657450656e64696e6741646d696e3a2043616c6c2060008201527f6d75737420636f6d652066726f6d2054696d656c6f636b2e0000000000000000602082015250565b7f54696d656c6f636b3a3a71756575655472616e73616374696f6e3a2043616c6c60008201527f206d75737420636f6d652066726f6d2061646d696e2e00000000000000000000602082015250565b7f54696d656c6f636b3a3a657865637574655472616e73616374696f6e3a20547260008201527f616e73616374696f6e20657865637574696f6e2072657665727465642e000000602082015250565b7f54696d656c6f636b3a3a71756575655472616e73616374696f6e3a204573746960008201527f6d6174656420657865637574696f6e20626c6f636b206d75737420736174697360208201527f66792064656c61792e0000000000000000000000000000000000000000000000604082015250565b7f54696d656c6f636b3a3a73657444656c61793a2043616c6c206d75737420636f60008201527f6d652066726f6d2054696d656c6f636b2e000000000000000000000000000000602082015250565b611e5981611848565b8114611e6457600080fd5b50565b611e7081611866565b8114611e7b57600080fd5b50565b611e87816118bc565b8114611e9257600080fd5b5056fea2646970667358221220b905110964848b32104ce62ba4e18dcbb094530758a605a9397f7224bd7872f164736f6c63430008040033",
  "immutableReferences": {},
  "source": "// SPDX-License-Identifier: MIT\n\npragma solidity ^0.8.0;\nimport \"./SafeMath.sol\";\n\ncontract Timelock {\n    using SafeMath for uint256;\n\n    event NewAdmin(address indexed newAdmin);\n    event NewPendingAdmin(address indexed newPendingAdmin);\n    event NewDelay(uint256 indexed newDelay);\n    event CancelTransaction(\n        bytes32 indexed txHash,\n        address indexed target,\n        uint256 value,\n        string signature,\n        bytes data,\n        uint256 eta\n    );\n    event ExecuteTransaction(\n        bytes32 indexed txHash,\n        address indexed target,\n        uint256 value,\n        string signature,\n        bytes data,\n        uint256 eta\n    );\n    event QueueTransaction(\n        bytes32 indexed txHash,\n        address indexed target,\n        uint256 value,\n        string signature,\n        bytes data,\n        uint256 eta\n    );\n\n    uint256 public constant GRACE_PERIOD = 14 days;\n    uint256 public constant MINIMUM_DELAY = 6 hours;\n    uint256 public constant MAXIMUM_DELAY = 30 days;\n\n    address public admin;\n    address public pendingAdmin;\n    uint256 public delay;\n    bool public admin_initialized;\n\n    mapping(bytes32 => bool) public queuedTransactions;\n\n    constructor(address admin_, uint256 delay_) {\n        require(\n            delay_ >= MINIMUM_DELAY,\n            \"Timelock::constructor: Delay must exceed minimum delay.\"\n        );\n        require(\n            delay_ <= MAXIMUM_DELAY,\n            \"Timelock::constructor: Delay must not exceed maximum delay.\"\n        );\n\n        admin = admin_;\n        delay = delay_;\n        admin_initialized = false;\n    }\n\n    // XXX: function() external payable { }\n    receive() external payable {}\n\n    function setDelay(uint256 delay_) public {\n        require(\n            msg.sender == address(this),\n            \"Timelock::setDelay: Call must come from Timelock.\"\n        );\n        require(\n            delay_ >= MINIMUM_DELAY,\n            \"Timelock::setDelay: Delay must exceed minimum delay.\"\n        );\n        require(\n            delay_ <= MAXIMUM_DELAY,\n            \"Timelock::setDelay: Delay must not exceed maximum delay.\"\n        );\n        delay = delay_;\n\n        emit NewDelay(delay);\n    }\n\n    function acceptAdmin() public {\n        require(\n            msg.sender == pendingAdmin,\n            \"Timelock::acceptAdmin: Call must come from pendingAdmin.\"\n        );\n        admin = msg.sender;\n        pendingAdmin = address(0);\n\n        emit NewAdmin(admin);\n    }\n\n    function setPendingAdmin(address pendingAdmin_) public {\n        // allows one time setting of admin for deployment purposes\n        if (admin_initialized) {\n            require(\n                msg.sender == address(this),\n                \"Timelock::setPendingAdmin: Call must come from Timelock.\"\n            );\n        } else {\n            require(\n                msg.sender == admin,\n                \"Timelock::setPendingAdmin: First call must come from admin.\"\n            );\n            admin_initialized = true;\n        }\n        pendingAdmin = pendingAdmin_;\n\n        emit NewPendingAdmin(pendingAdmin);\n    }\n\n    function queueTransaction(\n        address target,\n        uint256 value,\n        string memory signature,\n        bytes memory data,\n        uint256 eta\n    ) public returns (bytes32) {\n        require(\n            msg.sender == admin,\n            \"Timelock::queueTransaction: Call must come from admin.\"\n        );\n        require(\n            eta >= getBlockTimestamp().add(delay),\n            \"Timelock::queueTransaction: Estimated execution block must satisfy delay.\"\n        );\n\n        bytes32 txHash = keccak256(\n            abi.encode(target, value, signature, data, eta)\n        );\n        queuedTransactions[txHash] = true;\n\n        emit QueueTransaction(txHash, target, value, signature, data, eta);\n        return txHash;\n    }\n\n    function cancelTransaction(\n        address target,\n        uint256 value,\n        string memory signature,\n        bytes memory data,\n        uint256 eta\n    ) public {\n        require(\n            msg.sender == admin,\n            \"Timelock::cancelTransaction: Call must come from admin.\"\n        );\n\n        bytes32 txHash = keccak256(\n            abi.encode(target, value, signature, data, eta)\n        );\n        queuedTransactions[txHash] = false;\n\n        emit CancelTransaction(txHash, target, value, signature, data, eta);\n    }\n\n    function executeTransaction(\n        address target,\n        uint256 value,\n        string memory signature,\n        bytes memory data,\n        uint256 eta\n    ) public payable returns (bytes memory) {\n        require(\n            msg.sender == admin,\n            \"Timelock::executeTransaction: Call must come from admin.\"\n        );\n\n        bytes32 txHash = keccak256(\n            abi.encode(target, value, signature, data, eta)\n        );\n        require(\n            queuedTransactions[txHash],\n            \"Timelock::executeTransaction: Transaction hasn't been queued.\"\n        );\n        require(\n            getBlockTimestamp() >= eta,\n            \"Timelock::executeTransaction: Transaction hasn't surpassed time lock.\"\n        );\n        require(\n            getBlockTimestamp() <= eta.add(GRACE_PERIOD),\n            \"Timelock::executeTransaction: Transaction is stale.\"\n        );\n\n        queuedTransactions[txHash] = false;\n\n        bytes memory callData;\n\n        if (bytes(signature).length == 0) {\n            callData = data;\n        } else {\n            callData = abi.encodePacked(\n                bytes4(keccak256(bytes(signature))),\n                data\n            );\n        }\n\n        // solium-disable-next-line security/no-call-value\n        (bool success, bytes memory returnData) = target.call{value: value}(\n            callData\n        );\n        require(\n            success,\n            \"Timelock::executeTransaction: Transaction execution reverted.\"\n        );\n\n        emit ExecuteTransaction(txHash, target, value, signature, data, eta);\n\n        return returnData;\n    }\n\n    function getBlockTimestamp() internal view returns (uint256) {\n        // solium-disable-next-line security/no-block-members\n        return block.timestamp;\n    }\n}\n",
  "sourcePath": "/Users/minje/Desktop/recat/contracts/openzeppelin/Timelock.sol",
  "compiler": {
    "name": "solc",
    "version": "0.8.4+commit.c7e474f2.Emscripten.clang"
  },
  "schemaVersion": "3.4.3",
  "updatedAt": "2021-09-30T12:20:07.195Z",
  "devdoc": {
    "kind": "dev",
    "methods": {},
    "version": 1
  },
  "userdoc": {
    "kind": "user",
    "methods": {},
    "version": 1
  }
}